{
	"data": {
		"bytecode": {
			"linkReferences": {},
			"object": "608060405234801561001057600080fd5b506040516108a23803806108a28339818101604052602081101561003357600080fd5b810190808051604051939291908464010000000082111561005357600080fd5b8382019150602082018581111561006957600080fd5b825186602082028301116401000000008211171561008657600080fd5b8083526020830192505050908051906020019060200280838360005b838110156100bd5780820151818401526020810190506100a2565b5050505090500160405250505042816001815181106100d857fe5b602002602001015111610153576040517f08c379a00000000000000000000000000000000000000000000000000000000081526004018080602001828103825260148152602001807feca09ced959c20eab8b0eab08420ec98a4eba59800000000000000000000000081525060200191505060405180910390fd5b60016000806101000a81548160ff02191690831515021790555060008060016101000a81548160ff02191690831515021790555033600360006101000a81548173ffffffffffffffffffffffffffffffffffffffff021916908373ffffffffffffffffffffffffffffffffffffffff160217905550806000815181106101d557fe5b6020026020010151600181905550806001815181106101f057fe5b602002602001015160028190555060006004819055505061068c806102166000396000f3fe6080604052600436106100295760003560e01c80631998aeef1461002e578063d56b288914610038575b600080fd5b610036610042565b005b61004061036e565b005b6000809054906101000a900460ff166100c3576040517f08c379a000000000000000000000000000000000000000000000000000000000815260040180806020018281038252600c8152602001807feab2bdeba7a4eca285eba38c000000000000000000000000000000000000000081525060200191505060405180910390fd5b60025442111561013b576040517f08c379a00000000000000000000000000000000000000000000000000000000081526004018080602001828103825260148152602001807feab2bdeba7a420eab8b0eab08420eca780eb82a800000000000000000000000081525060200191505060405180910390fd5b60045434116101b2576040517f08c379a000000000000000000000000000000000000000000000000000000000815260040180806020018281038252600d8152602001807feab080eab2a920ebafb8eb8bac0000000000000000000000000000000000000081525060200191505060405180910390fd5b60015434111561022a576040517f08c379a00000000000000000000000000000000000000000000000000000000081526004018080602001828103825260148152602001807fed9daceba79d20eab080eab2a920ecb488eab3bc00000000000000000000000081525060200191505060405180910390fd5b600560009054906101000a900473ffffffffffffffffffffffffffffffffffffffff1673ffffffffffffffffffffffffffffffffffffffff166108fc6004549081150290604051600060405180830381858888f19350505050158015610294573d6000803e3d6000fd5b503460048190555033600560006101000a81548173ffffffffffffffffffffffffffffffffffffffff021916908373ffffffffffffffffffffffffffffffffffffffff1602179055507f99664c8f26eef289aadf1536f5aa42f492fbe244d85accbc4cbe5678c4e447ee600454600560009054906101000a900473ffffffffffffffffffffffffffffffffffffffff16604051808381526020018273ffffffffffffffffffffffffffffffffffffffff1673ffffffffffffffffffffffffffffffffffffffff1681526020019250505060405180910390a1565b3373ffffffffffffffffffffffffffffffffffffffff16600360009054906101000a900473ffffffffffffffffffffffffffffffffffffffff1673ffffffffffffffffffffffffffffffffffffffff1614610431576040517f08c379a000000000000000000000000000000000000000000000000000000000815260040180806020018281038252600c8152602001807f6f776e657220ec9584eb8b98000000000000000000000000000000000000000081525060200191505060405180910390fd5b6000809054906101000a900460ff166104b2576040517f08c379a000000000000000000000000000000000000000000000000000000000815260040180806020018281038252600d8152602001807feab2bdeba7a420eca285eba38c0000000000000000000000000000000000000081525060200191505060405180910390fd5b600254421015806104c65750600154600454145b610538576040517f08c379a00000000000000000000000000000000000000000000000000000000081526004018080602001828103825260148152602001807feca285eba38c20eca1b0eab1b420ebafb8eb8bac00000000000000000000000081525060200191505060405180910390fd5b7f42fda9b762f686d8a947e339a83eef45118408115b3acfc3c68ad908e8bc7dc9600454600560009054906101000a900473ffffffffffffffffffffffffffffffffffffffff16604051808381526020018273ffffffffffffffffffffffffffffffffffffffff1673ffffffffffffffffffffffffffffffffffffffff1681526020019250505060405180910390a160008060006101000a81548160ff021916908315150217905550600360009054906101000a900473ffffffffffffffffffffffffffffffffffffffff1673ffffffffffffffffffffffffffffffffffffffff166108fc6004549081150290604051600060405180830381858888f1935050505015801561064b573d6000803e3d6000fd5b50600060048190555056fea2646970667358221220ee6a2248f6fda999504937684bc3e73fafccf7ba449c209f2eae73f30586af0464736f6c63430006090033",
			"opcodes": "PUSH1 0x80 PUSH1 0x40 MSTORE CALLVALUE DUP1 ISZERO PUSH2 0x10 JUMPI PUSH1 0x0 DUP1 REVERT JUMPDEST POP PUSH1 0x40 MLOAD PUSH2 0x8A2 CODESIZE SUB DUP1 PUSH2 0x8A2 DUP4 CODECOPY DUP2 DUP2 ADD PUSH1 0x40 MSTORE PUSH1 0x20 DUP2 LT ISZERO PUSH2 0x33 JUMPI PUSH1 0x0 DUP1 REVERT JUMPDEST DUP2 ADD SWAP1 DUP1 DUP1 MLOAD PUSH1 0x40 MLOAD SWAP4 SWAP3 SWAP2 SWAP1 DUP5 PUSH5 0x100000000 DUP3 GT ISZERO PUSH2 0x53 JUMPI PUSH1 0x0 DUP1 REVERT JUMPDEST DUP4 DUP3 ADD SWAP2 POP PUSH1 0x20 DUP3 ADD DUP6 DUP2 GT ISZERO PUSH2 0x69 JUMPI PUSH1 0x0 DUP1 REVERT JUMPDEST DUP3 MLOAD DUP7 PUSH1 0x20 DUP3 MUL DUP4 ADD GT PUSH5 0x100000000 DUP3 GT OR ISZERO PUSH2 0x86 JUMPI PUSH1 0x0 DUP1 REVERT JUMPDEST DUP1 DUP4 MSTORE PUSH1 0x20 DUP4 ADD SWAP3 POP POP POP SWAP1 DUP1 MLOAD SWAP1 PUSH1 0x20 ADD SWAP1 PUSH1 0x20 MUL DUP1 DUP4 DUP4 PUSH1 0x0 JUMPDEST DUP4 DUP2 LT ISZERO PUSH2 0xBD JUMPI DUP1 DUP3 ADD MLOAD DUP2 DUP5 ADD MSTORE PUSH1 0x20 DUP2 ADD SWAP1 POP PUSH2 0xA2 JUMP JUMPDEST POP POP POP POP SWAP1 POP ADD PUSH1 0x40 MSTORE POP POP POP TIMESTAMP DUP2 PUSH1 0x1 DUP2 MLOAD DUP2 LT PUSH2 0xD8 JUMPI INVALID JUMPDEST PUSH1 0x20 MUL PUSH1 0x20 ADD ADD MLOAD GT PUSH2 0x153 JUMPI PUSH1 0x40 MLOAD PUSH32 0x8C379A000000000000000000000000000000000000000000000000000000000 DUP2 MSTORE PUSH1 0x4 ADD DUP1 DUP1 PUSH1 0x20 ADD DUP3 DUP2 SUB DUP3 MSTORE PUSH1 0x14 DUP2 MSTORE PUSH1 0x20 ADD DUP1 PUSH32 0xECA09CED959C20EAB8B0EAB08420EC98A4EBA598000000000000000000000000 DUP2 MSTORE POP PUSH1 0x20 ADD SWAP2 POP POP PUSH1 0x40 MLOAD DUP1 SWAP2 SUB SWAP1 REVERT JUMPDEST PUSH1 0x1 PUSH1 0x0 DUP1 PUSH2 0x100 EXP DUP2 SLOAD DUP2 PUSH1 0xFF MUL NOT AND SWAP1 DUP4 ISZERO ISZERO MUL OR SWAP1 SSTORE POP PUSH1 0x0 DUP1 PUSH1 0x1 PUSH2 0x100 EXP DUP2 SLOAD DUP2 PUSH1 0xFF MUL NOT AND SWAP1 DUP4 ISZERO ISZERO MUL OR SWAP1 SSTORE POP CALLER PUSH1 0x3 PUSH1 0x0 PUSH2 0x100 EXP DUP2 SLOAD DUP2 PUSH20 0xFFFFFFFFFFFFFFFFFFFFFFFFFFFFFFFFFFFFFFFF MUL NOT AND SWAP1 DUP4 PUSH20 0xFFFFFFFFFFFFFFFFFFFFFFFFFFFFFFFFFFFFFFFF AND MUL OR SWAP1 SSTORE POP DUP1 PUSH1 0x0 DUP2 MLOAD DUP2 LT PUSH2 0x1D5 JUMPI INVALID JUMPDEST PUSH1 0x20 MUL PUSH1 0x20 ADD ADD MLOAD PUSH1 0x1 DUP2 SWAP1 SSTORE POP DUP1 PUSH1 0x1 DUP2 MLOAD DUP2 LT PUSH2 0x1F0 JUMPI INVALID JUMPDEST PUSH1 0x20 MUL PUSH1 0x20 ADD ADD MLOAD PUSH1 0x2 DUP2 SWAP1 SSTORE POP PUSH1 0x0 PUSH1 0x4 DUP2 SWAP1 SSTORE POP POP PUSH2 0x68C DUP1 PUSH2 0x216 PUSH1 0x0 CODECOPY PUSH1 0x0 RETURN INVALID PUSH1 0x80 PUSH1 0x40 MSTORE PUSH1 0x4 CALLDATASIZE LT PUSH2 0x29 JUMPI PUSH1 0x0 CALLDATALOAD PUSH1 0xE0 SHR DUP1 PUSH4 0x1998AEEF EQ PUSH2 0x2E JUMPI DUP1 PUSH4 0xD56B2889 EQ PUSH2 0x38 JUMPI JUMPDEST PUSH1 0x0 DUP1 REVERT JUMPDEST PUSH2 0x36 PUSH2 0x42 JUMP JUMPDEST STOP JUMPDEST PUSH2 0x40 PUSH2 0x36E JUMP JUMPDEST STOP JUMPDEST PUSH1 0x0 DUP1 SWAP1 SLOAD SWAP1 PUSH2 0x100 EXP SWAP1 DIV PUSH1 0xFF AND PUSH2 0xC3 JUMPI PUSH1 0x40 MLOAD PUSH32 0x8C379A000000000000000000000000000000000000000000000000000000000 DUP2 MSTORE PUSH1 0x4 ADD DUP1 DUP1 PUSH1 0x20 ADD DUP3 DUP2 SUB DUP3 MSTORE PUSH1 0xC DUP2 MSTORE PUSH1 0x20 ADD DUP1 PUSH32 0xEAB2BDEBA7A4ECA285EBA38C0000000000000000000000000000000000000000 DUP2 MSTORE POP PUSH1 0x20 ADD SWAP2 POP POP PUSH1 0x40 MLOAD DUP1 SWAP2 SUB SWAP1 REVERT JUMPDEST PUSH1 0x2 SLOAD TIMESTAMP GT ISZERO PUSH2 0x13B JUMPI PUSH1 0x40 MLOAD PUSH32 0x8C379A000000000000000000000000000000000000000000000000000000000 DUP2 MSTORE PUSH1 0x4 ADD DUP1 DUP1 PUSH1 0x20 ADD DUP3 DUP2 SUB DUP3 MSTORE PUSH1 0x14 DUP2 MSTORE PUSH1 0x20 ADD DUP1 PUSH32 0xEAB2BDEBA7A420EAB8B0EAB08420ECA780EB82A8000000000000000000000000 DUP2 MSTORE POP PUSH1 0x20 ADD SWAP2 POP POP PUSH1 0x40 MLOAD DUP1 SWAP2 SUB SWAP1 REVERT JUMPDEST PUSH1 0x4 SLOAD CALLVALUE GT PUSH2 0x1B2 JUMPI PUSH1 0x40 MLOAD PUSH32 0x8C379A000000000000000000000000000000000000000000000000000000000 DUP2 MSTORE PUSH1 0x4 ADD DUP1 DUP1 PUSH1 0x20 ADD DUP3 DUP2 SUB DUP3 MSTORE PUSH1 0xD DUP2 MSTORE PUSH1 0x20 ADD DUP1 PUSH32 0xEAB080EAB2A920EBAFB8EB8BAC00000000000000000000000000000000000000 DUP2 MSTORE POP PUSH1 0x20 ADD SWAP2 POP POP PUSH1 0x40 MLOAD DUP1 SWAP2 SUB SWAP1 REVERT JUMPDEST PUSH1 0x1 SLOAD CALLVALUE GT ISZERO PUSH2 0x22A JUMPI PUSH1 0x40 MLOAD PUSH32 0x8C379A000000000000000000000000000000000000000000000000000000000 DUP2 MSTORE PUSH1 0x4 ADD DUP1 DUP1 PUSH1 0x20 ADD DUP3 DUP2 SUB DUP3 MSTORE PUSH1 0x14 DUP2 MSTORE PUSH1 0x20 ADD DUP1 PUSH32 0xED9DACEBA79D20EAB080EAB2A920ECB488EAB3BC000000000000000000000000 DUP2 MSTORE POP PUSH1 0x20 ADD SWAP2 POP POP PUSH1 0x40 MLOAD DUP1 SWAP2 SUB SWAP1 REVERT JUMPDEST PUSH1 0x5 PUSH1 0x0 SWAP1 SLOAD SWAP1 PUSH2 0x100 EXP SWAP1 DIV PUSH20 0xFFFFFFFFFFFFFFFFFFFFFFFFFFFFFFFFFFFFFFFF AND PUSH20 0xFFFFFFFFFFFFFFFFFFFFFFFFFFFFFFFFFFFFFFFF AND PUSH2 0x8FC PUSH1 0x4 SLOAD SWAP1 DUP2 ISZERO MUL SWAP1 PUSH1 0x40 MLOAD PUSH1 0x0 PUSH1 0x40 MLOAD DUP1 DUP4 SUB DUP2 DUP6 DUP9 DUP9 CALL SWAP4 POP POP POP POP ISZERO DUP1 ISZERO PUSH2 0x294 JUMPI RETURNDATASIZE PUSH1 0x0 DUP1 RETURNDATACOPY RETURNDATASIZE PUSH1 0x0 REVERT JUMPDEST POP CALLVALUE PUSH1 0x4 DUP2 SWAP1 SSTORE POP CALLER PUSH1 0x5 PUSH1 0x0 PUSH2 0x100 EXP DUP2 SLOAD DUP2 PUSH20 0xFFFFFFFFFFFFFFFFFFFFFFFFFFFFFFFFFFFFFFFF MUL NOT AND SWAP1 DUP4 PUSH20 0xFFFFFFFFFFFFFFFFFFFFFFFFFFFFFFFFFFFFFFFF AND MUL OR SWAP1 SSTORE POP PUSH32 0x99664C8F26EEF289AADF1536F5AA42F492FBE244D85ACCBC4CBE5678C4E447EE PUSH1 0x4 SLOAD PUSH1 0x5 PUSH1 0x0 SWAP1 SLOAD SWAP1 PUSH2 0x100 EXP SWAP1 DIV PUSH20 0xFFFFFFFFFFFFFFFFFFFFFFFFFFFFFFFFFFFFFFFF AND PUSH1 0x40 MLOAD DUP1 DUP4 DUP2 MSTORE PUSH1 0x20 ADD DUP3 PUSH20 0xFFFFFFFFFFFFFFFFFFFFFFFFFFFFFFFFFFFFFFFF AND PUSH20 0xFFFFFFFFFFFFFFFFFFFFFFFFFFFFFFFFFFFFFFFF AND DUP2 MSTORE PUSH1 0x20 ADD SWAP3 POP POP POP PUSH1 0x40 MLOAD DUP1 SWAP2 SUB SWAP1 LOG1 JUMP JUMPDEST CALLER PUSH20 0xFFFFFFFFFFFFFFFFFFFFFFFFFFFFFFFFFFFFFFFF AND PUSH1 0x3 PUSH1 0x0 SWAP1 SLOAD SWAP1 PUSH2 0x100 EXP SWAP1 DIV PUSH20 0xFFFFFFFFFFFFFFFFFFFFFFFFFFFFFFFFFFFFFFFF AND PUSH20 0xFFFFFFFFFFFFFFFFFFFFFFFFFFFFFFFFFFFFFFFF AND EQ PUSH2 0x431 JUMPI PUSH1 0x40 MLOAD PUSH32 0x8C379A000000000000000000000000000000000000000000000000000000000 DUP2 MSTORE PUSH1 0x4 ADD DUP1 DUP1 PUSH1 0x20 ADD DUP3 DUP2 SUB DUP3 MSTORE PUSH1 0xC DUP2 MSTORE PUSH1 0x20 ADD DUP1 PUSH32 0x6F776E657220EC9584EB8B980000000000000000000000000000000000000000 DUP2 MSTORE POP PUSH1 0x20 ADD SWAP2 POP POP PUSH1 0x40 MLOAD DUP1 SWAP2 SUB SWAP1 REVERT JUMPDEST PUSH1 0x0 DUP1 SWAP1 SLOAD SWAP1 PUSH2 0x100 EXP SWAP1 DIV PUSH1 0xFF AND PUSH2 0x4B2 JUMPI PUSH1 0x40 MLOAD PUSH32 0x8C379A000000000000000000000000000000000000000000000000000000000 DUP2 MSTORE PUSH1 0x4 ADD DUP1 DUP1 PUSH1 0x20 ADD DUP3 DUP2 SUB DUP3 MSTORE PUSH1 0xD DUP2 MSTORE PUSH1 0x20 ADD DUP1 PUSH32 0xEAB2BDEBA7A420ECA285EBA38C00000000000000000000000000000000000000 DUP2 MSTORE POP PUSH1 0x20 ADD SWAP2 POP POP PUSH1 0x40 MLOAD DUP1 SWAP2 SUB SWAP1 REVERT JUMPDEST PUSH1 0x2 SLOAD TIMESTAMP LT ISZERO DUP1 PUSH2 0x4C6 JUMPI POP PUSH1 0x1 SLOAD PUSH1 0x4 SLOAD EQ JUMPDEST PUSH2 0x538 JUMPI PUSH1 0x40 MLOAD PUSH32 0x8C379A000000000000000000000000000000000000000000000000000000000 DUP2 MSTORE PUSH1 0x4 ADD DUP1 DUP1 PUSH1 0x20 ADD DUP3 DUP2 SUB DUP3 MSTORE PUSH1 0x14 DUP2 MSTORE PUSH1 0x20 ADD DUP1 PUSH32 0xECA285EBA38C20ECA1B0EAB1B420EBAFB8EB8BAC000000000000000000000000 DUP2 MSTORE POP PUSH1 0x20 ADD SWAP2 POP POP PUSH1 0x40 MLOAD DUP1 SWAP2 SUB SWAP1 REVERT JUMPDEST PUSH32 0x42FDA9B762F686D8A947E339A83EEF45118408115B3ACFC3C68AD908E8BC7DC9 PUSH1 0x4 SLOAD PUSH1 0x5 PUSH1 0x0 SWAP1 SLOAD SWAP1 PUSH2 0x100 EXP SWAP1 DIV PUSH20 0xFFFFFFFFFFFFFFFFFFFFFFFFFFFFFFFFFFFFFFFF AND PUSH1 0x40 MLOAD DUP1 DUP4 DUP2 MSTORE PUSH1 0x20 ADD DUP3 PUSH20 0xFFFFFFFFFFFFFFFFFFFFFFFFFFFFFFFFFFFFFFFF AND PUSH20 0xFFFFFFFFFFFFFFFFFFFFFFFFFFFFFFFFFFFFFFFF AND DUP2 MSTORE PUSH1 0x20 ADD SWAP3 POP POP POP PUSH1 0x40 MLOAD DUP1 SWAP2 SUB SWAP1 LOG1 PUSH1 0x0 DUP1 PUSH1 0x0 PUSH2 0x100 EXP DUP2 SLOAD DUP2 PUSH1 0xFF MUL NOT AND SWAP1 DUP4 ISZERO ISZERO MUL OR SWAP1 SSTORE POP PUSH1 0x3 PUSH1 0x0 SWAP1 SLOAD SWAP1 PUSH2 0x100 EXP SWAP1 DIV PUSH20 0xFFFFFFFFFFFFFFFFFFFFFFFFFFFFFFFFFFFFFFFF AND PUSH20 0xFFFFFFFFFFFFFFFFFFFFFFFFFFFFFFFFFFFFFFFF AND PUSH2 0x8FC PUSH1 0x4 SLOAD SWAP1 DUP2 ISZERO MUL SWAP1 PUSH1 0x40 MLOAD PUSH1 0x0 PUSH1 0x40 MLOAD DUP1 DUP4 SUB DUP2 DUP6 DUP9 DUP9 CALL SWAP4 POP POP POP POP ISZERO DUP1 ISZERO PUSH2 0x64B JUMPI RETURNDATASIZE PUSH1 0x0 DUP1 RETURNDATACOPY RETURNDATASIZE PUSH1 0x0 REVERT JUMPDEST POP PUSH1 0x0 PUSH1 0x4 DUP2 SWAP1 SSTORE POP JUMP INVALID LOG2 PUSH5 0x6970667358 0x22 SLT KECCAK256 0xEE PUSH11 0x2248F6FDA999504937684B 0xC3 0xE7 EXTCODEHASH 0xAF 0xCC 0xF7 0xBA DIFFICULTY SWAP13 KECCAK256 SWAP16 0x2E 0xAE PUSH20 0xF30586AF0464736F6C6343000609003300000000 "
		},
		"gasEstimates": {
			"creation": {
				"codeDepositCost": "335200",
				"executionCost": "infinite",
				"totalCost": "infinite"
			},
			"external": {
				"bid()": "infinite",
				"finish()": "infinite"
			}
		},
		"methodIdentifiers": {
			"bid()": "1998aeef",
			"finish()": "d56b2889"
		}
	},
	"abi": [
		{
			"inputs": [
				{
					"internalType": "uint256[]",
					"name": "datas",
					"type": "uint256[]"
				}
			],
			"stateMutability": "nonpayable",
			"type": "constructor"
		},
		{
			"anonymous": false,
			"inputs": [
				{
					"indexed": false,
					"internalType": "uint256",
					"name": "price",
					"type": "uint256"
				},
				{
					"indexed": false,
					"internalType": "address",
					"name": "bidder_",
					"type": "address"
				}
			],
			"name": "finish_auction",
			"type": "event"
		},
		{
			"anonymous": false,
			"inputs": [
				{
					"indexed": false,
					"internalType": "uint256",
					"name": "price",
					"type": "uint256"
				},
				{
					"indexed": false,
					"internalType": "address",
					"name": "bidder_",
					"type": "address"
				}
			],
			"name": "max_price_renewal",
			"type": "event"
		},
		{
			"inputs": [],
			"name": "bid",
			"outputs": [],
			"stateMutability": "payable",
			"type": "function"
		},
		{
			"inputs": [],
			"name": "finish",
			"outputs": [],
			"stateMutability": "payable",
			"type": "function"
		}
	]
}