{
	"7/voting.sol": {
		"Ballot": {
			"abi": [
				{
					"inputs": [
						{
							"internalType": "bytes32[]",
							"name": "proposalNames",
							"type": "bytes32[]"
						}
					],
					"stateMutability": "nonpayable",
					"type": "constructor"
				},
				{
					"inputs": [],
					"name": "chairperson",
					"outputs": [
						{
							"internalType": "address",
							"name": "",
							"type": "address"
						}
					],
					"stateMutability": "view",
					"type": "function"
				},
				{
					"inputs": [
						{
							"internalType": "address",
							"name": "to",
							"type": "address"
						}
					],
					"name": "delegate",
					"outputs": [],
					"stateMutability": "nonpayable",
					"type": "function"
				},
				{
					"inputs": [],
					"name": "getWinner",
					"outputs": [
						{
							"internalType": "uint256",
							"name": "winner",
							"type": "uint256"
						}
					],
					"stateMutability": "view",
					"type": "function"
				},
				{
					"inputs": [
						{
							"internalType": "address",
							"name": "voter",
							"type": "address"
						}
					],
					"name": "giveRightToVote",
					"outputs": [],
					"stateMutability": "nonpayable",
					"type": "function"
				},
				{
					"inputs": [
						{
							"internalType": "uint256",
							"name": "",
							"type": "uint256"
						}
					],
					"name": "proposals",
					"outputs": [
						{
							"internalType": "bytes32",
							"name": "name",
							"type": "bytes32"
						},
						{
							"internalType": "uint256",
							"name": "voteCount",
							"type": "uint256"
						}
					],
					"stateMutability": "view",
					"type": "function"
				},
				{
					"inputs": [
						{
							"internalType": "uint256",
							"name": "proposal",
							"type": "uint256"
						}
					],
					"name": "vote",
					"outputs": [],
					"stateMutability": "nonpayable",
					"type": "function"
				},
				{
					"inputs": [
						{
							"internalType": "address",
							"name": "",
							"type": "address"
						}
					],
					"name": "voters",
					"outputs": [
						{
							"internalType": "uint256",
							"name": "weight",
							"type": "uint256"
						},
						{
							"internalType": "bool",
							"name": "voted",
							"type": "bool"
						},
						{
							"internalType": "address",
							"name": "delegate",
							"type": "address"
						},
						{
							"internalType": "uint256",
							"name": "vote",
							"type": "uint256"
						}
					],
					"stateMutability": "view",
					"type": "function"
				},
				{
					"inputs": [],
					"name": "winnerName",
					"outputs": [
						{
							"internalType": "bytes32",
							"name": "name",
							"type": "bytes32"
						}
					],
					"stateMutability": "view",
					"type": "function"
				}
			],
			"devdoc": {
				"kind": "dev",
				"methods": {},
				"version": 1
			},
			"evm": {
				"assembly": "    /* \"7/voting.sol\":36:3228  contract Ballot {\r... */\n  mstore(0x40, 0x80)\n    /* \"7/voting.sol\":692:1016  constructor(bytes32[] memory proposalNames)public{\r... */\n  callvalue\n  dup1\n  iszero\n  tag_1\n  jumpi\n  0x00\n  dup1\n  revert\ntag_1:\n  pop\n  mload(0x40)\n  sub(codesize, bytecodeSize)\n  dup1\n  bytecodeSize\n  dup4\n  codecopy\n  dup2\n  dup2\n  add\n  0x40\n  mstore\n  0x20\n  dup2\n  lt\n  iszero\n  tag_2\n  jumpi\n  0x00\n  dup1\n  revert\ntag_2:\n  dup2\n  add\n  swap1\n  dup1\n  dup1\n  mload\n  mload(0x40)\n  swap4\n  swap3\n  swap2\n  swap1\n  dup5\n  0x0100000000\n  dup3\n  gt\n  iszero\n  tag_3\n  jumpi\n  0x00\n  dup1\n  revert\ntag_3:\n  dup4\n  dup3\n  add\n  swap2\n  pop\n  0x20\n  dup3\n  add\n  dup6\n  dup2\n  gt\n  iszero\n  tag_4\n  jumpi\n  0x00\n  dup1\n  revert\ntag_4:\n  dup3\n  mload\n  dup7\n  0x20\n  dup3\n  mul\n  dup4\n  add\n  gt\n  0x0100000000\n  dup3\n  gt\n  or\n  iszero\n  tag_5\n  jumpi\n  0x00\n  dup1\n  revert\ntag_5:\n  dup1\n  dup4\n  mstore\n  0x20\n  dup4\n  add\n  swap3\n  pop\n  pop\n  pop\n  swap1\n  dup1\n  mload\n  swap1\n  0x20\n  add\n  swap1\n  0x20\n  mul\n  dup1\n  dup4\n  dup4\n  0x00\ntag_6:\n  dup4\n  dup2\n  lt\n  iszero\n  tag_8\n  jumpi\n  dup1\n  dup3\n  add\n  mload\n  dup2\n  dup5\n  add\n  mstore\n  0x20\n  dup2\n  add\n  swap1\n  pop\n  jump(tag_6)\ntag_8:\n  pop\n  pop\n  pop\n  pop\n  swap1\n  pop\n  add\n  0x40\n  mstore\n  pop\n  pop\n  pop\n    /* \"7/voting.sol\":766:776  msg.sender */\n  caller\n    /* \"7/voting.sol\":752:763  chairperson */\n  0x00\n  dup1\n    /* \"7/voting.sol\":752:776  chairperson = msg.sender */\n  0x0100\n  exp\n  dup2\n  sload\n  dup2\n  0xffffffffffffffffffffffffffffffffffffffff\n  mul\n  not\n  and\n  swap1\n  dup4\n  0xffffffffffffffffffffffffffffffffffffffff\n  and\n  mul\n  or\n  swap1\n  sstore\n  pop\n    /* \"7/voting.sol\":814:815  1 */\n  0x01\n    /* \"7/voting.sol\":787:793  voters */\n  dup1\n    /* \"7/voting.sol\":787:806  voters[chairperson] */\n  0x00\n    /* \"7/voting.sol\":794:805  chairperson */\n  dup1\n  0x00\n  swap1\n  sload\n  swap1\n  0x0100\n  exp\n  swap1\n  div\n  0xffffffffffffffffffffffffffffffffffffffff\n  and\n    /* \"7/voting.sol\":787:806  voters[chairperson] */\n  0xffffffffffffffffffffffffffffffffffffffff\n  and\n  0xffffffffffffffffffffffffffffffffffffffff\n  and\n  dup2\n  mstore\n  0x20\n  add\n  swap1\n  dup2\n  mstore\n  0x20\n  add\n  0x00\n  keccak256\n    /* \"7/voting.sol\":787:813  voters[chairperson].weight */\n  0x00\n  add\n    /* \"7/voting.sol\":787:815  voters[chairperson].weight=1 */\n  dup2\n  swap1\n  sstore\n  pop\n    /* \"7/voting.sol\":858:864  uint i */\n  0x00\n    /* \"7/voting.sol\":854:1009  for(uint i = 0; i < proposalNames.length; i++){\r... */\ntag_11:\n    /* \"7/voting.sol\":874:887  proposalNames */\n  dup2\n    /* \"7/voting.sol\":874:894  proposalNames.length */\n  mload\n    /* \"7/voting.sol\":870:871  i */\n  dup2\n    /* \"7/voting.sol\":870:894  i < proposalNames.length */\n  lt\n    /* \"7/voting.sol\":854:1009  for(uint i = 0; i < proposalNames.length; i++){\r... */\n  iszero\n  tag_12\n  jumpi\n    /* \"7/voting.sol\":915:924  proposals */\n  0x02\n    /* \"7/voting.sol\":930:996  Proposal({\r... */\n  mload(0x40)\n  dup1\n  0x40\n  add\n  0x40\n  mstore\n  dup1\n    /* \"7/voting.sol\":964:977  proposalNames */\n  dup5\n    /* \"7/voting.sol\":978:979  i */\n  dup5\n    /* \"7/voting.sol\":964:980  proposalNames[i] */\n  dup2\n  mload\n  dup2\n  lt\n  tag_14\n  jumpi\n  invalid\ntag_14:\n  0x20\n  mul\n  0x20\n  add\n  add\n  mload\n    /* \"7/voting.sol\":930:996  Proposal({\r... */\n  dup2\n  mstore\n  0x20\n  add\n    /* \"7/voting.sol\":993:994  0 */\n  0x00\n    /* \"7/voting.sol\":930:996  Proposal({\r... */\n  dup2\n  mstore\n  pop\n    /* \"7/voting.sol\":915:997  proposals.push(Proposal({\r... */\n  swap1\n  dup1\n  0x01\n  dup2\n  sload\n  add\n  dup1\n  dup3\n  sstore\n  dup1\n  swap2\n  pop\n  pop\n  0x01\n  swap1\n  sub\n  swap1\n  0x00\n  mstore\n  keccak256(0x00, 0x20)\n  swap1\n  0x02\n  mul\n  add\n  0x00\n  swap1\n  swap2\n  swap1\n  swap2\n  swap1\n  swap2\n  pop\n  0x00\n  dup3\n  add\n  mload\n  dup2\n  0x00\n  add\n  sstore\n  0x20\n  dup3\n  add\n  mload\n  dup2\n  0x01\n  add\n  sstore\n  pop\n  pop\n    /* \"7/voting.sol\":896:899  i++ */\n  dup1\n  dup1\n  0x01\n  add\n  swap2\n  pop\n  pop\n    /* \"7/voting.sol\":854:1009  for(uint i = 0; i < proposalNames.length; i++){\r... */\n  jump(tag_11)\ntag_12:\n  pop\n    /* \"7/voting.sol\":692:1016  constructor(bytes32[] memory proposalNames)public{\r... */\n  pop\n    /* \"7/voting.sol\":36:3228  contract Ballot {\r... */\n  dataSize(sub_0)\n  dup1\n  dataOffset(sub_0)\n  0x00\n  codecopy\n  0x00\n  return\nstop\n\nsub_0: assembly {\n        /* \"7/voting.sol\":36:3228  contract Ballot {\r... */\n      mstore(0x40, 0x80)\n      callvalue\n      dup1\n      iszero\n      tag_1\n      jumpi\n      0x00\n      dup1\n      revert\n    tag_1:\n      pop\n      jumpi(tag_2, lt(calldatasize, 0x04))\n      shr(0xe0, calldataload(0x00))\n      dup1\n      0x8e7ea5b2\n      gt\n      tag_11\n      jumpi\n      dup1\n      0x8e7ea5b2\n      eq\n      tag_7\n      jumpi\n      dup1\n      0x9e7b8d61\n      eq\n      tag_8\n      jumpi\n      dup1\n      0xa3ec138d\n      eq\n      tag_9\n      jumpi\n      dup1\n      0xe2ba53f0\n      eq\n      tag_10\n      jumpi\n      jump(tag_2)\n    tag_11:\n      dup1\n      0x0121b93f\n      eq\n      tag_3\n      jumpi\n      dup1\n      0x013cf08b\n      eq\n      tag_4\n      jumpi\n      dup1\n      0x2e4176cf\n      eq\n      tag_5\n      jumpi\n      dup1\n      0x5c19a95c\n      eq\n      tag_6\n      jumpi\n    tag_2:\n      0x00\n      dup1\n      revert\n        /* \"7/voting.sol\":2449:2777  function vote (uint proposal) public{\r... */\n    tag_3:\n      tag_12\n      0x04\n      dup1\n      calldatasize\n      sub\n      0x20\n      dup2\n      lt\n      iszero\n      tag_13\n      jumpi\n      0x00\n      dup1\n      revert\n    tag_13:\n      dup2\n      add\n      swap1\n      dup1\n      dup1\n      calldataload\n      swap1\n      0x20\n      add\n      swap1\n      swap3\n      swap2\n      swap1\n      pop\n      pop\n      pop\n      tag_14\n      jump\t// in\n    tag_12:\n      stop\n        /* \"7/voting.sol\":637:664  Proposal[] public proposals */\n    tag_4:\n      tag_15\n      0x04\n      dup1\n      calldatasize\n      sub\n      0x20\n      dup2\n      lt\n      iszero\n      tag_16\n      jumpi\n      0x00\n      dup1\n      revert\n    tag_16:\n      dup2\n      add\n      swap1\n      dup1\n      dup1\n      calldataload\n      swap1\n      0x20\n      add\n      swap1\n      swap3\n      swap2\n      swap1\n      pop\n      pop\n      pop\n      tag_17\n      jump\t// in\n    tag_15:\n      mload(0x40)\n      dup1\n      dup4\n      dup2\n      mstore\n      0x20\n      add\n      dup3\n      dup2\n      mstore\n      0x20\n      add\n      swap3\n      pop\n      pop\n      pop\n      mload(0x40)\n      dup1\n      swap2\n      sub\n      swap1\n      return\n        /* \"7/voting.sol\":482:508  address public chairperson */\n    tag_5:\n      tag_18\n      tag_19\n      jump\t// in\n    tag_18:\n      mload(0x40)\n      dup1\n      dup3\n      0xffffffffffffffffffffffffffffffffffffffff\n      and\n      dup2\n      mstore\n      0x20\n      add\n      swap2\n      pop\n      pop\n      mload(0x40)\n      dup1\n      swap2\n      sub\n      swap1\n      return\n        /* \"7/voting.sol\":1380:2443  function delegate(address to)public {\r... */\n    tag_6:\n      tag_20\n      0x04\n      dup1\n      calldatasize\n      sub\n      0x20\n      dup2\n      lt\n      iszero\n      tag_21\n      jumpi\n      0x00\n      dup1\n      revert\n    tag_21:\n      dup2\n      add\n      swap1\n      dup1\n      dup1\n      calldataload\n      0xffffffffffffffffffffffffffffffffffffffff\n      and\n      swap1\n      0x20\n      add\n      swap1\n      swap3\n      swap2\n      swap1\n      pop\n      pop\n      pop\n      tag_22\n      jump\t// in\n    tag_20:\n      stop\n        /* \"7/voting.sol\":2785:3107  function getWinner() public view returns (uint winner){\r... */\n    tag_7:\n      tag_23\n      tag_24\n      jump\t// in\n    tag_23:\n      mload(0x40)\n      dup1\n      dup3\n      dup2\n      mstore\n      0x20\n      add\n      swap2\n      pop\n      pop\n      mload(0x40)\n      dup1\n      swap2\n      sub\n      swap1\n      return\n        /* \"7/voting.sol\":1022:1350  function giveRightToVote(address voter)public{\r... */\n    tag_8:\n      tag_25\n      0x04\n      dup1\n      calldatasize\n      sub\n      0x20\n      dup2\n      lt\n      iszero\n      tag_26\n      jumpi\n      0x00\n      dup1\n      revert\n    tag_26:\n      dup2\n      add\n      swap1\n      dup1\n      dup1\n      calldataload\n      0xffffffffffffffffffffffffffffffffffffffff\n      and\n      swap1\n      0x20\n      add\n      swap1\n      swap3\n      swap2\n      swap1\n      pop\n      pop\n      pop\n      tag_27\n      jump\t// in\n    tag_25:\n      stop\n        /* \"7/voting.sol\":543:582  mapping(address => Voter) public voters */\n    tag_9:\n      tag_28\n      0x04\n      dup1\n      calldatasize\n      sub\n      0x20\n      dup2\n      lt\n      iszero\n      tag_29\n      jumpi\n      0x00\n      dup1\n      revert\n    tag_29:\n      dup2\n      add\n      swap1\n      dup1\n      dup1\n      calldataload\n      0xffffffffffffffffffffffffffffffffffffffff\n      and\n      swap1\n      0x20\n      add\n      swap1\n      swap3\n      swap2\n      swap1\n      pop\n      pop\n      pop\n      tag_30\n      jump\t// in\n    tag_28:\n      mload(0x40)\n      dup1\n      dup6\n      dup2\n      mstore\n      0x20\n      add\n      dup5\n      iszero\n      iszero\n      dup2\n      mstore\n      0x20\n      add\n      dup4\n      0xffffffffffffffffffffffffffffffffffffffff\n      and\n      dup2\n      mstore\n      0x20\n      add\n      dup3\n      dup2\n      mstore\n      0x20\n      add\n      swap5\n      pop\n      pop\n      pop\n      pop\n      pop\n      mload(0x40)\n      dup1\n      swap2\n      sub\n      swap1\n      return\n        /* \"7/voting.sol\":3115:3223  function winnerName() public view returns(bytes32 name){\r... */\n    tag_10:\n      tag_31\n      tag_32\n      jump\t// in\n    tag_31:\n      mload(0x40)\n      dup1\n      dup3\n      dup2\n      mstore\n      0x20\n      add\n      swap2\n      pop\n      pop\n      mload(0x40)\n      dup1\n      swap2\n      sub\n      swap1\n      return\n        /* \"7/voting.sol\":2449:2777  function vote (uint proposal) public{\r... */\n    tag_14:\n        /* \"7/voting.sol\":2496:2516  Voter storage sender */\n      0x00\n        /* \"7/voting.sol\":2519:2525  voters */\n      0x01\n        /* \"7/voting.sol\":2519:2537  voters[msg.sender] */\n      0x00\n        /* \"7/voting.sol\":2526:2536  msg.sender */\n      caller\n        /* \"7/voting.sol\":2519:2537  voters[msg.sender] */\n      0xffffffffffffffffffffffffffffffffffffffff\n      and\n      0xffffffffffffffffffffffffffffffffffffffff\n      and\n      dup2\n      mstore\n      0x20\n      add\n      swap1\n      dup2\n      mstore\n      0x20\n      add\n      0x00\n      keccak256\n        /* \"7/voting.sol\":2496:2537  Voter storage sender = voters[msg.sender] */\n      swap1\n      pop\n        /* \"7/voting.sol\":2573:2574  0 */\n      0x00\n        /* \"7/voting.sol\":2556:2562  sender */\n      dup2\n        /* \"7/voting.sol\":2556:2569  sender.weight */\n      0x00\n      add\n      sload\n        /* \"7/voting.sol\":2556:2574  sender.weight != 0 */\n      eq\n      iszero\n        /* \"7/voting.sol\":2548:2599  require(sender.weight != 0, \"Has no right to vote\") */\n      tag_34\n      jumpi\n      mload(0x40)\n      0x08c379a000000000000000000000000000000000000000000000000000000000\n      dup2\n      mstore\n      0x04\n      add\n      dup1\n      dup1\n      0x20\n      add\n      dup3\n      dup2\n      sub\n      dup3\n      mstore\n      0x14\n      dup2\n      mstore\n      0x20\n      add\n      dup1\n      0x486173206e6f20726967687420746f20766f7465000000000000000000000000\n      dup2\n      mstore\n      pop\n      0x20\n      add\n      swap2\n      pop\n      pop\n      mload(0x40)\n      dup1\n      swap2\n      sub\n      swap1\n      revert\n    tag_34:\n        /* \"7/voting.sol\":2619:2625  sender */\n      dup1\n        /* \"7/voting.sol\":2619:2631  sender.voted */\n      0x01\n      add\n      0x00\n      swap1\n      sload\n      swap1\n      0x0100\n      exp\n      swap1\n      div\n      0xff\n      and\n        /* \"7/voting.sol\":2618:2631  !sender.voted */\n      iszero\n        /* \"7/voting.sol\":2610:2649  require(!sender.voted,\"Already voted.\") */\n      tag_35\n      jumpi\n      mload(0x40)\n      0x08c379a000000000000000000000000000000000000000000000000000000000\n      dup2\n      mstore\n      0x04\n      add\n      dup1\n      dup1\n      0x20\n      add\n      dup3\n      dup2\n      sub\n      dup3\n      mstore\n      0x0e\n      dup2\n      mstore\n      0x20\n      add\n      dup1\n      0x416c726561647920766f7465642e000000000000000000000000000000000000\n      dup2\n      mstore\n      pop\n      0x20\n      add\n      swap2\n      pop\n      pop\n      mload(0x40)\n      dup1\n      swap2\n      sub\n      swap1\n      revert\n    tag_35:\n        /* \"7/voting.sol\":2675:2679  true */\n      0x01\n        /* \"7/voting.sol\":2660:2666  sender */\n      dup2\n        /* \"7/voting.sol\":2660:2672  sender.voted */\n      0x01\n      add\n      0x00\n        /* \"7/voting.sol\":2660:2679  sender.voted = true */\n      0x0100\n      exp\n      dup2\n      sload\n      dup2\n      0xff\n      mul\n      not\n      and\n      swap1\n      dup4\n      iszero\n      iszero\n      mul\n      or\n      swap1\n      sstore\n      pop\n        /* \"7/voting.sol\":2704:2712  proposal */\n      dup2\n        /* \"7/voting.sol\":2690:2696  sender */\n      dup2\n        /* \"7/voting.sol\":2690:2701  sender.vote */\n      0x02\n      add\n        /* \"7/voting.sol\":2690:2712  sender.vote = proposal */\n      dup2\n      swap1\n      sstore\n      pop\n        /* \"7/voting.sol\":2756:2762  sender */\n      dup1\n        /* \"7/voting.sol\":2756:2769  sender.weight */\n      0x00\n      add\n      sload\n        /* \"7/voting.sol\":2723:2732  proposals */\n      0x02\n        /* \"7/voting.sol\":2733:2741  proposal */\n      dup4\n        /* \"7/voting.sol\":2723:2742  proposals[proposal] */\n      dup2\n      sload\n      dup2\n      lt\n      tag_36\n      jumpi\n      invalid\n    tag_36:\n      swap1\n      0x00\n      mstore\n      keccak256(0x00, 0x20)\n      swap1\n      0x02\n      mul\n      add\n        /* \"7/voting.sol\":2723:2752  proposals[proposal].voteCount */\n      0x01\n      add\n      0x00\n        /* \"7/voting.sol\":2723:2769  proposals[proposal].voteCount += sender.weight */\n      dup3\n      dup3\n      sload\n      add\n      swap3\n      pop\n      pop\n      dup2\n      swap1\n      sstore\n      pop\n        /* \"7/voting.sol\":2449:2777  function vote (uint proposal) public{\r... */\n      pop\n      pop\n      jump\t// out\n        /* \"7/voting.sol\":637:664  Proposal[] public proposals */\n    tag_17:\n      0x02\n      dup2\n      dup2\n      sload\n      dup2\n      lt\n      tag_38\n      jumpi\n      invalid\n    tag_38:\n      swap1\n      0x00\n      mstore\n      keccak256(0x00, 0x20)\n      swap1\n      0x02\n      mul\n      add\n      0x00\n      swap2\n      pop\n      swap1\n      pop\n      dup1\n      0x00\n      add\n      sload\n      swap1\n      dup1\n      0x01\n      add\n      sload\n      swap1\n      pop\n      dup3\n      jump\t// out\n        /* \"7/voting.sol\":482:508  address public chairperson */\n    tag_19:\n      0x00\n      dup1\n      sload\n      swap1\n      0x0100\n      exp\n      swap1\n      div\n      0xffffffffffffffffffffffffffffffffffffffff\n      and\n      dup2\n      jump\t// out\n        /* \"7/voting.sol\":1380:2443  function delegate(address to)public {\r... */\n    tag_22:\n        /* \"7/voting.sol\":1427:1447  Voter storage sender */\n      0x00\n        /* \"7/voting.sol\":1450:1456  voters */\n      0x01\n        /* \"7/voting.sol\":1450:1468  voters[msg.sender] */\n      0x00\n        /* \"7/voting.sol\":1457:1467  msg.sender */\n      caller\n        /* \"7/voting.sol\":1450:1468  voters[msg.sender] */\n      0xffffffffffffffffffffffffffffffffffffffff\n      and\n      0xffffffffffffffffffffffffffffffffffffffff\n      and\n      dup2\n      mstore\n      0x20\n      add\n      swap1\n      dup2\n      mstore\n      0x20\n      add\n      0x00\n      keccak256\n        /* \"7/voting.sol\":1427:1468  Voter storage sender = voters[msg.sender] */\n      swap1\n      pop\n        /* \"7/voting.sol\":1488:1494  sender */\n      dup1\n        /* \"7/voting.sol\":1488:1500  sender.voted */\n      0x01\n      add\n      0x00\n      swap1\n      sload\n      swap1\n      0x0100\n      exp\n      swap1\n      div\n      0xff\n      and\n        /* \"7/voting.sol\":1487:1500  !sender.voted */\n      iszero\n        /* \"7/voting.sol\":1479:1523  require(!sender.voted, \"You already voted.\") */\n      tag_41\n      jumpi\n      mload(0x40)\n      0x08c379a000000000000000000000000000000000000000000000000000000000\n      dup2\n      mstore\n      0x04\n      add\n      dup1\n      dup1\n      0x20\n      add\n      dup3\n      dup2\n      sub\n      dup3\n      mstore\n      0x12\n      dup2\n      mstore\n      0x20\n      add\n      dup1\n      0x596f7520616c726561647920766f7465642e0000000000000000000000000000\n      dup2\n      mstore\n      pop\n      0x20\n      add\n      swap2\n      pop\n      pop\n      mload(0x40)\n      dup1\n      swap2\n      sub\n      swap1\n      revert\n    tag_41:\n        /* \"7/voting.sol\":1574:1584  msg.sender */\n      caller\n        /* \"7/voting.sol\":1568:1584  to != msg.sender */\n      0xffffffffffffffffffffffffffffffffffffffff\n      and\n        /* \"7/voting.sol\":1568:1570  to */\n      dup3\n        /* \"7/voting.sol\":1568:1584  to != msg.sender */\n      0xffffffffffffffffffffffffffffffffffffffff\n      and\n      eq\n      iszero\n        /* \"7/voting.sol\":1560:1607  require(to != msg.sender,\"No Self-delegation!\") */\n      tag_42\n      jumpi\n      mload(0x40)\n      0x08c379a000000000000000000000000000000000000000000000000000000000\n      dup2\n      mstore\n      0x04\n      add\n      dup1\n      dup1\n      0x20\n      add\n      dup3\n      dup2\n      sub\n      dup3\n      mstore\n      0x13\n      dup2\n      mstore\n      0x20\n      add\n      dup1\n      0x4e6f2053656c662d64656c65676174696f6e2100000000000000000000000000\n      dup2\n      mstore\n      pop\n      0x20\n      add\n      swap2\n      pop\n      pop\n      mload(0x40)\n      dup1\n      swap2\n      sub\n      swap1\n      revert\n    tag_42:\n        /* \"7/voting.sol\":1645:1935  while(voters[to].delegate != address(0)){       // 투표권 양도하지 않은 사람까지\r... */\n    tag_43:\n        /* \"7/voting.sol\":1682:1683  0 */\n      0x00\n        /* \"7/voting.sol\":1651:1684  voters[to].delegate != address(0) */\n      0xffffffffffffffffffffffffffffffffffffffff\n      and\n        /* \"7/voting.sol\":1651:1657  voters */\n      0x01\n        /* \"7/voting.sol\":1651:1661  voters[to] */\n      0x00\n        /* \"7/voting.sol\":1658:1660  to */\n      dup5\n        /* \"7/voting.sol\":1651:1661  voters[to] */\n      0xffffffffffffffffffffffffffffffffffffffff\n      and\n      0xffffffffffffffffffffffffffffffffffffffff\n      and\n      dup2\n      mstore\n      0x20\n      add\n      swap1\n      dup2\n      mstore\n      0x20\n      add\n      0x00\n      keccak256\n        /* \"7/voting.sol\":1651:1670  voters[to].delegate */\n      0x01\n      add\n      0x01\n      swap1\n      sload\n      swap1\n      0x0100\n      exp\n      swap1\n      div\n      0xffffffffffffffffffffffffffffffffffffffff\n      and\n        /* \"7/voting.sol\":1651:1684  voters[to].delegate != address(0) */\n      0xffffffffffffffffffffffffffffffffffffffff\n      and\n      eq\n        /* \"7/voting.sol\":1645:1935  while(voters[to].delegate != address(0)){       // 투표권 양도하지 않은 사람까지\r... */\n      tag_44\n      jumpi\n        /* \"7/voting.sol\":1757:1763  voters */\n      0x01\n        /* \"7/voting.sol\":1757:1767  voters[to] */\n      0x00\n        /* \"7/voting.sol\":1764:1766  to */\n      dup4\n        /* \"7/voting.sol\":1757:1767  voters[to] */\n      0xffffffffffffffffffffffffffffffffffffffff\n      and\n      0xffffffffffffffffffffffffffffffffffffffff\n      and\n      dup2\n      mstore\n      0x20\n      add\n      swap1\n      dup2\n      mstore\n      0x20\n      add\n      0x00\n      keccak256\n        /* \"7/voting.sol\":1757:1776  voters[to].delegate */\n      0x01\n      add\n      0x01\n      swap1\n      sload\n      swap1\n      0x0100\n      exp\n      swap1\n      div\n      0xffffffffffffffffffffffffffffffffffffffff\n      and\n        /* \"7/voting.sol\":1752:1776  to = voters[to].delegate */\n      swap2\n      pop\n        /* \"7/voting.sol\":1805:1815  msg.sender */\n      caller\n        /* \"7/voting.sol\":1799:1815  to != msg.sender */\n      0xffffffffffffffffffffffffffffffffffffffff\n      and\n        /* \"7/voting.sol\":1799:1801  to */\n      dup3\n        /* \"7/voting.sol\":1799:1815  to != msg.sender */\n      0xffffffffffffffffffffffffffffffffffffffff\n      and\n      eq\n      iszero\n        /* \"7/voting.sol\":1791:1836  require(to != msg.sender, \"Delegation Loop!\") */\n      tag_45\n      jumpi\n      mload(0x40)\n      0x08c379a000000000000000000000000000000000000000000000000000000000\n      dup2\n      mstore\n      0x04\n      add\n      dup1\n      dup1\n      0x20\n      add\n      dup3\n      dup2\n      sub\n      dup3\n      mstore\n      0x10\n      dup2\n      mstore\n      0x20\n      add\n      dup1\n      0x44656c65676174696f6e204c6f6f702100000000000000000000000000000000\n      dup2\n      mstore\n      pop\n      0x20\n      add\n      swap2\n      pop\n      pop\n      mload(0x40)\n      dup1\n      swap2\n      sub\n      swap1\n      revert\n    tag_45:\n        /* \"7/voting.sol\":1645:1935  while(voters[to].delegate != address(0)){       // 투표권 양도하지 않은 사람까지\r... */\n      jump(tag_43)\n    tag_44:\n        /* \"7/voting.sol\":1962:1966  true */\n      0x01\n        /* \"7/voting.sol\":1947:1953  sender */\n      dup2\n        /* \"7/voting.sol\":1947:1959  sender.voted */\n      0x01\n      add\n      0x00\n        /* \"7/voting.sol\":1947:1966  sender.voted = true */\n      0x0100\n      exp\n      dup2\n      sload\n      dup2\n      0xff\n      mul\n      not\n      and\n      swap1\n      dup4\n      iszero\n      iszero\n      mul\n      or\n      swap1\n      sstore\n      pop\n        /* \"7/voting.sol\":1993:1995  to */\n      dup2\n        /* \"7/voting.sol\":1977:1983  sender */\n      dup2\n        /* \"7/voting.sol\":1977:1992  sender.delegate */\n      0x01\n      add\n      0x01\n        /* \"7/voting.sol\":1977:1995  sender.delegate=to */\n      0x0100\n      exp\n      dup2\n      sload\n      dup2\n      0xffffffffffffffffffffffffffffffffffffffff\n      mul\n      not\n      and\n      swap1\n      dup4\n      0xffffffffffffffffffffffffffffffffffffffff\n      and\n      mul\n      or\n      swap1\n      sstore\n      pop\n        /* \"7/voting.sol\":2006:2029  Voter storage delegate_ */\n      0x00\n        /* \"7/voting.sol\":2032:2038  voters */\n      0x01\n        /* \"7/voting.sol\":2032:2042  voters[to] */\n      0x00\n        /* \"7/voting.sol\":2039:2041  to */\n      dup5\n        /* \"7/voting.sol\":2032:2042  voters[to] */\n      0xffffffffffffffffffffffffffffffffffffffff\n      and\n      0xffffffffffffffffffffffffffffffffffffffff\n      and\n      dup2\n      mstore\n      0x20\n      add\n      swap1\n      dup2\n      mstore\n      0x20\n      add\n      0x00\n      keccak256\n        /* \"7/voting.sol\":2006:2042  Voter storage delegate_ = voters[to] */\n      swap1\n      pop\n        /* \"7/voting.sol\":2114:2123  delegate_ */\n      dup1\n        /* \"7/voting.sol\":2114:2129  delegate_.voted */\n      0x01\n      add\n      0x00\n      swap1\n      sload\n      swap1\n      0x0100\n      exp\n      swap1\n      div\n      0xff\n      and\n        /* \"7/voting.sol\":2111:2398  if(delegate_.voted)\r... */\n      iszero\n      tag_46\n      jumpi\n        /* \"7/voting.sol\":2183:2189  sender */\n      dup2\n        /* \"7/voting.sol\":2183:2196  sender.weight */\n      0x00\n      add\n      sload\n        /* \"7/voting.sol\":2144:2153  proposals */\n      0x02\n        /* \"7/voting.sol\":2154:2163  delegate_ */\n      dup3\n        /* \"7/voting.sol\":2154:2168  delegate_.vote */\n      0x02\n      add\n      sload\n        /* \"7/voting.sol\":2144:2169  proposals[delegate_.vote] */\n      dup2\n      sload\n      dup2\n      lt\n      tag_47\n      jumpi\n      invalid\n    tag_47:\n      swap1\n      0x00\n      mstore\n      keccak256(0x00, 0x20)\n      swap1\n      0x02\n      mul\n      add\n        /* \"7/voting.sol\":2144:2179  proposals[delegate_.vote].voteCount */\n      0x01\n      add\n      0x00\n        /* \"7/voting.sol\":2144:2196  proposals[delegate_.vote].voteCount += sender.weight */\n      dup3\n      dup3\n      sload\n      add\n      swap3\n      pop\n      pop\n      dup2\n      swap1\n      sstore\n      pop\n        /* \"7/voting.sol\":2111:2398  if(delegate_.voted)\r... */\n      jump(tag_49)\n    tag_46:\n        /* \"7/voting.sol\":2385:2391  sender */\n      dup2\n        /* \"7/voting.sol\":2385:2398  sender.weight */\n      0x00\n      add\n      sload\n        /* \"7/voting.sol\":2365:2374  delegate_ */\n      dup2\n        /* \"7/voting.sol\":2365:2381  delegate_.weight */\n      0x00\n      add\n      0x00\n        /* \"7/voting.sol\":2365:2398  delegate_.weight += sender.weight */\n      dup3\n      dup3\n      sload\n      add\n      swap3\n      pop\n      pop\n      dup2\n      swap1\n      sstore\n      pop\n        /* \"7/voting.sol\":2111:2398  if(delegate_.voted)\r... */\n    tag_49:\n        /* \"7/voting.sol\":1380:2443  function delegate(address to)public {\r... */\n      pop\n      pop\n      pop\n      jump\t// out\n        /* \"7/voting.sol\":2785:3107  function getWinner() public view returns (uint winner){\r... */\n    tag_24:\n        /* \"7/voting.sol\":2827:2838  uint winner */\n      0x00\n        /* \"7/voting.sol\":2850:2871  uint winningVoteCount */\n      dup1\n        /* \"7/voting.sol\":2874:2875  0 */\n      0x00\n        /* \"7/voting.sol\":2850:2875  uint winningVoteCount = 0 */\n      swap1\n      pop\n        /* \"7/voting.sol\":2890:2896  uint p */\n      0x00\n        /* \"7/voting.sol\":2886:3100  for(uint p = 0;p<proposals.length;p++){\r... */\n    tag_51:\n        /* \"7/voting.sol\":2903:2912  proposals */\n      0x02\n        /* \"7/voting.sol\":2903:2919  proposals.length */\n      dup1\n      sload\n      swap1\n      pop\n        /* \"7/voting.sol\":2901:2902  p */\n      dup2\n        /* \"7/voting.sol\":2901:2919  p<proposals.length */\n      lt\n        /* \"7/voting.sol\":2886:3100  for(uint p = 0;p<proposals.length;p++){\r... */\n      iszero\n      tag_52\n      jumpi\n        /* \"7/voting.sol\":2967:2983  winningVoteCount */\n      dup2\n        /* \"7/voting.sol\":2942:2951  proposals */\n      0x02\n        /* \"7/voting.sol\":2952:2953  p */\n      dup3\n        /* \"7/voting.sol\":2942:2954  proposals[p] */\n      dup2\n      sload\n      dup2\n      lt\n      tag_54\n      jumpi\n      invalid\n    tag_54:\n      swap1\n      0x00\n      mstore\n      keccak256(0x00, 0x20)\n      swap1\n      0x02\n      mul\n      add\n        /* \"7/voting.sol\":2942:2964  proposals[p].voteCount */\n      0x01\n      add\n      sload\n        /* \"7/voting.sol\":2942:2983  proposals[p].voteCount > winningVoteCount */\n      gt\n        /* \"7/voting.sol\":2939:3089  if(proposals[p].voteCount > winningVoteCount){\r... */\n      iszero\n      tag_56\n      jumpi\n        /* \"7/voting.sol\":3022:3031  proposals */\n      0x02\n        /* \"7/voting.sol\":3032:3033  p */\n      dup2\n        /* \"7/voting.sol\":3022:3034  proposals[p] */\n      dup2\n      sload\n      dup2\n      lt\n      tag_57\n      jumpi\n      invalid\n    tag_57:\n      swap1\n      0x00\n      mstore\n      keccak256(0x00, 0x20)\n      swap1\n      0x02\n      mul\n      add\n        /* \"7/voting.sol\":3022:3044  proposals[p].voteCount */\n      0x01\n      add\n      sload\n        /* \"7/voting.sol\":3003:3044  winningVoteCount = proposals[p].voteCount */\n      swap2\n      pop\n        /* \"7/voting.sol\":3072:3073  p */\n      dup1\n        /* \"7/voting.sol\":3063:3073  winner = p */\n      swap3\n      pop\n        /* \"7/voting.sol\":2939:3089  if(proposals[p].voteCount > winningVoteCount){\r... */\n    tag_56:\n        /* \"7/voting.sol\":2920:2923  p++ */\n      dup1\n      dup1\n      0x01\n      add\n      swap2\n      pop\n      pop\n        /* \"7/voting.sol\":2886:3100  for(uint p = 0;p<proposals.length;p++){\r... */\n      jump(tag_51)\n    tag_52:\n      pop\n        /* \"7/voting.sol\":2785:3107  function getWinner() public view returns (uint winner){\r... */\n      pop\n      swap1\n      jump\t// out\n        /* \"7/voting.sol\":1022:1350  function giveRightToVote(address voter)public{\r... */\n    tag_27:\n        /* \"7/voting.sol\":1101:1112  chairperson */\n      0x00\n      dup1\n      sload\n      swap1\n      0x0100\n      exp\n      swap1\n      div\n      0xffffffffffffffffffffffffffffffffffffffff\n      and\n        /* \"7/voting.sol\":1087:1112  msg.sender == chairperson */\n      0xffffffffffffffffffffffffffffffffffffffff\n      and\n        /* \"7/voting.sol\":1087:1097  msg.sender */\n      caller\n        /* \"7/voting.sol\":1087:1112  msg.sender == chairperson */\n      0xffffffffffffffffffffffffffffffffffffffff\n      and\n      eq\n        /* \"7/voting.sol\":1078:1176  require( msg.sender == chairperson,\r... */\n      tag_60\n      jumpi\n      mload(0x40)\n      0x08c379a000000000000000000000000000000000000000000000000000000000\n      dup2\n      mstore\n      0x04\n      add\n      dup1\n      dup1\n      0x20\n      add\n      dup3\n      dup2\n      sub\n      dup3\n      mstore\n      0x28\n      dup2\n      mstore\n      0x20\n      add\n      dup1\n      data_80126ce3251ab2b6e4ade14fe5b2bc11f593510cbe9e3550c09bff1989e33b95\n      0x28\n      swap2\n      codecopy\n      0x40\n      add\n      swap2\n      pop\n      pop\n      mload(0x40)\n      dup1\n      swap2\n      sub\n      swap1\n      revert\n    tag_60:\n        /* \"7/voting.sol\":1197:1203  voters */\n      0x01\n        /* \"7/voting.sol\":1197:1210  voters[voter] */\n      0x00\n        /* \"7/voting.sol\":1204:1209  voter */\n      dup3\n        /* \"7/voting.sol\":1197:1210  voters[voter] */\n      0xffffffffffffffffffffffffffffffffffffffff\n      and\n      0xffffffffffffffffffffffffffffffffffffffff\n      and\n      dup2\n      mstore\n      0x20\n      add\n      swap1\n      dup2\n      mstore\n      0x20\n      add\n      0x00\n      keccak256\n        /* \"7/voting.sol\":1197:1216  voters[voter].voted */\n      0x01\n      add\n      0x00\n      swap1\n      sload\n      swap1\n      0x0100\n      exp\n      swap1\n      div\n      0xff\n      and\n        /* \"7/voting.sol\":1196:1216  !voters[voter].voted */\n      iszero\n        /* \"7/voting.sol\":1187:1264  require( !voters[voter].voted,\r... */\n      tag_61\n      jumpi\n      mload(0x40)\n      0x08c379a000000000000000000000000000000000000000000000000000000000\n      dup2\n      mstore\n      0x04\n      add\n      dup1\n      dup1\n      0x20\n      add\n      dup3\n      dup2\n      sub\n      dup3\n      mstore\n      0x18\n      dup2\n      mstore\n      0x20\n      add\n      dup1\n      0x54686520766f74657220616c726561647920766f7465642e0000000000000000\n      dup2\n      mstore\n      pop\n      0x20\n      add\n      swap2\n      pop\n      pop\n      mload(0x40)\n      dup1\n      swap2\n      sub\n      swap1\n      revert\n    tag_61:\n        /* \"7/voting.sol\":1307:1308  0 */\n      0x00\n        /* \"7/voting.sol\":1283:1289  voters */\n      0x01\n        /* \"7/voting.sol\":1283:1296  voters[voter] */\n      0x00\n        /* \"7/voting.sol\":1290:1295  voter */\n      dup4\n        /* \"7/voting.sol\":1283:1296  voters[voter] */\n      0xffffffffffffffffffffffffffffffffffffffff\n      and\n      0xffffffffffffffffffffffffffffffffffffffff\n      and\n      dup2\n      mstore\n      0x20\n      add\n      swap1\n      dup2\n      mstore\n      0x20\n      add\n      0x00\n      keccak256\n        /* \"7/voting.sol\":1283:1303  voters[voter].weight */\n      0x00\n      add\n      sload\n        /* \"7/voting.sol\":1283:1308  voters[voter].weight == 0 */\n      eq\n        /* \"7/voting.sol\":1275:1309  require(voters[voter].weight == 0) */\n      tag_62\n      jumpi\n      0x00\n      dup1\n      revert\n    tag_62:\n        /* \"7/voting.sol\":1341:1342  1 */\n      0x01\n        /* \"7/voting.sol\":1320:1326  voters */\n      dup1\n        /* \"7/voting.sol\":1320:1333  voters[voter] */\n      0x00\n        /* \"7/voting.sol\":1327:1332  voter */\n      dup4\n        /* \"7/voting.sol\":1320:1333  voters[voter] */\n      0xffffffffffffffffffffffffffffffffffffffff\n      and\n      0xffffffffffffffffffffffffffffffffffffffff\n      and\n      dup2\n      mstore\n      0x20\n      add\n      swap1\n      dup2\n      mstore\n      0x20\n      add\n      0x00\n      keccak256\n        /* \"7/voting.sol\":1320:1340  voters[voter].weight */\n      0x00\n      add\n        /* \"7/voting.sol\":1320:1342  voters[voter].weight=1 */\n      dup2\n      swap1\n      sstore\n      pop\n        /* \"7/voting.sol\":1022:1350  function giveRightToVote(address voter)public{\r... */\n      pop\n      jump\t// out\n        /* \"7/voting.sol\":543:582  mapping(address => Voter) public voters */\n    tag_30:\n      mstore(0x20, 0x01)\n      dup1\n      0x00\n      mstore\n      keccak256(0x00, 0x40)\n      0x00\n      swap2\n      pop\n      swap1\n      pop\n      dup1\n      0x00\n      add\n      sload\n      swap1\n      dup1\n      0x01\n      add\n      0x00\n      swap1\n      sload\n      swap1\n      0x0100\n      exp\n      swap1\n      div\n      0xff\n      and\n      swap1\n      dup1\n      0x01\n      add\n      0x01\n      swap1\n      sload\n      swap1\n      0x0100\n      exp\n      swap1\n      div\n      0xffffffffffffffffffffffffffffffffffffffff\n      and\n      swap1\n      dup1\n      0x02\n      add\n      sload\n      swap1\n      pop\n      dup5\n      jump\t// out\n        /* \"7/voting.sol\":3115:3223  function winnerName() public view returns(bytes32 name){\r... */\n    tag_32:\n        /* \"7/voting.sol\":3157:3169  bytes32 name */\n      0x00\n        /* \"7/voting.sol\":3188:3197  proposals */\n      0x02\n        /* \"7/voting.sol\":3198:3209  getWinner() */\n      tag_64\n        /* \"7/voting.sol\":3198:3207  getWinner */\n      tag_24\n        /* \"7/voting.sol\":3198:3209  getWinner() */\n      jump\t// in\n    tag_64:\n        /* \"7/voting.sol\":3188:3210  proposals[getWinner()] */\n      dup2\n      sload\n      dup2\n      lt\n      tag_65\n      jumpi\n      invalid\n    tag_65:\n      swap1\n      0x00\n      mstore\n      keccak256(0x00, 0x20)\n      swap1\n      0x02\n      mul\n      add\n        /* \"7/voting.sol\":3188:3215  proposals[getWinner()].name */\n      0x00\n      add\n      sload\n        /* \"7/voting.sol\":3181:3215  name = proposals[getWinner()].name */\n      swap1\n      pop\n        /* \"7/voting.sol\":3115:3223  function winnerName() public view returns(bytes32 name){\r... */\n      swap1\n      jump\t// out\n    stop\n    data_80126ce3251ab2b6e4ade14fe5b2bc11f593510cbe9e3550c09bff1989e33b95 4f6e6c79206368616972706572736f6e2063616e206769766520726967687420746f20766f74652e\n\n    auxdata: 0xa2646970667358221220be919fa9c46256afebce2226106650d0c001664daa6f13d7ce5ab0ffb0fea0c864736f6c634300060c0033\n}\n",
				"bytecode": {
					"linkReferences": {},
					"object": "608060405234801561001057600080fd5b50604051610df1380380610df18339818101604052602081101561003357600080fd5b810190808051604051939291908464010000000082111561005357600080fd5b8382019150602082018581111561006957600080fd5b825186602082028301116401000000008211171561008657600080fd5b8083526020830192505050908051906020019060200280838360005b838110156100bd5780820151818401526020810190506100a2565b50505050905001604052505050336000806101000a81548173ffffffffffffffffffffffffffffffffffffffff021916908373ffffffffffffffffffffffffffffffffffffffff16021790555060018060008060009054906101000a900473ffffffffffffffffffffffffffffffffffffffff1673ffffffffffffffffffffffffffffffffffffffff1673ffffffffffffffffffffffffffffffffffffffff1681526020019081526020016000206000018190555060005b81518110156101f5576002604051806040016040528084848151811061019757fe5b6020026020010151815260200160008152509080600181540180825580915050600190039060005260206000209060020201600090919091909150600082015181600001556020820151816001015550508080600101915050610175565b5050610beb806102066000396000f3fe608060405234801561001057600080fd5b50600436106100885760003560e01c80638e7ea5b21161005b5780638e7ea5b21461017c5780639e7b8d611461019a578063a3ec138d146101de578063e2ba53f01461026357610088565b80630121b93f1461008d578063013cf08b146100bb5780632e4176cf146101045780635c19a95c14610138575b600080fd5b6100b9600480360360208110156100a357600080fd5b8101908080359060200190929190505050610281565b005b6100e7600480360360208110156100d157600080fd5b810190808035906020019092919050505061041e565b604051808381526020018281526020019250505060405180910390f35b61010c61044f565b604051808273ffffffffffffffffffffffffffffffffffffffff16815260200191505060405180910390f35b61017a6004803603602081101561014e57600080fd5b81019080803573ffffffffffffffffffffffffffffffffffffffff169060200190929190505050610473565b005b61018461088f565b6040518082815260200191505060405180910390f35b6101dc600480360360208110156101b057600080fd5b81019080803573ffffffffffffffffffffffffffffffffffffffff169060200190929190505050610903565b005b610220600480360360208110156101f457600080fd5b81019080803573ffffffffffffffffffffffffffffffffffffffff169060200190929190505050610b03565b6040518085815260200184151581526020018373ffffffffffffffffffffffffffffffffffffffff16815260200182815260200194505050505060405180910390f35b61026b610b60565b6040518082815260200191505060405180910390f35b6000600160003373ffffffffffffffffffffffffffffffffffffffff1673ffffffffffffffffffffffffffffffffffffffff168152602001908152602001600020905060008160000154141561033f576040517f08c379a00000000000000000000000000000000000000000000000000000000081526004018080602001828103825260148152602001807f486173206e6f20726967687420746f20766f746500000000000000000000000081525060200191505060405180910390fd5b8060010160009054906101000a900460ff16156103c4576040517f08c379a000000000000000000000000000000000000000000000000000000000815260040180806020018281038252600e8152602001807f416c726561647920766f7465642e00000000000000000000000000000000000081525060200191505060405180910390fd5b60018160010160006101000a81548160ff0219169083151502179055508181600201819055508060000154600283815481106103fc57fe5b9060005260206000209060020201600101600082825401925050819055505050565b6002818154811061042b57fe5b90600052602060002090600202016000915090508060000154908060010154905082565b60008054906101000a900473ffffffffffffffffffffffffffffffffffffffff1681565b6000600160003373ffffffffffffffffffffffffffffffffffffffff1673ffffffffffffffffffffffffffffffffffffffff16815260200190815260200160002090508060010160009054906101000a900460ff161561053b576040517f08c379a00000000000000000000000000000000000000000000000000000000081526004018080602001828103825260128152602001807f596f7520616c726561647920766f7465642e000000000000000000000000000081525060200191505060405180910390fd5b3373ffffffffffffffffffffffffffffffffffffffff168273ffffffffffffffffffffffffffffffffffffffff1614156105dd576040517f08c379a00000000000000000000000000000000000000000000000000000000081526004018080602001828103825260138152602001807f4e6f2053656c662d64656c65676174696f6e210000000000000000000000000081525060200191505060405180910390fd5b5b600073ffffffffffffffffffffffffffffffffffffffff16600160008473ffffffffffffffffffffffffffffffffffffffff1673ffffffffffffffffffffffffffffffffffffffff16815260200190815260200160002060010160019054906101000a900473ffffffffffffffffffffffffffffffffffffffff1673ffffffffffffffffffffffffffffffffffffffff161461078057600160008373ffffffffffffffffffffffffffffffffffffffff1673ffffffffffffffffffffffffffffffffffffffff16815260200190815260200160002060010160019054906101000a900473ffffffffffffffffffffffffffffffffffffffff1691503373ffffffffffffffffffffffffffffffffffffffff168273ffffffffffffffffffffffffffffffffffffffff16141561077b576040517f08c379a00000000000000000000000000000000000000000000000000000000081526004018080602001828103825260108152602001807f44656c65676174696f6e204c6f6f70210000000000000000000000000000000081525060200191505060405180910390fd5b6105de565b60018160010160006101000a81548160ff021916908315150217905550818160010160016101000a81548173ffffffffffffffffffffffffffffffffffffffff021916908373ffffffffffffffffffffffffffffffffffffffff1602179055506000600160008473ffffffffffffffffffffffffffffffffffffffff1673ffffffffffffffffffffffffffffffffffffffff16815260200190815260200160002090508060010160009054906101000a900460ff1615610873578160000154600282600201548154811061085057fe5b90600052602060002090600202016001016000828254019250508190555061088a565b816000015481600001600082825401925050819055505b505050565b6000806000905060005b6002805490508110156108fe5781600282815481106108b457fe5b90600052602060002090600202016001015411156108f157600281815481106108d957fe5b90600052602060002090600202016001015491508092505b8080600101915050610899565b505090565b60008054906101000a900473ffffffffffffffffffffffffffffffffffffffff1673ffffffffffffffffffffffffffffffffffffffff163373ffffffffffffffffffffffffffffffffffffffff16146109a7576040517f08c379a0000000000000000000000000000000000000000000000000000000008152600401808060200182810382526028815260200180610b8e6028913960400191505060405180910390fd5b600160008273ffffffffffffffffffffffffffffffffffffffff1673ffffffffffffffffffffffffffffffffffffffff16815260200190815260200160002060010160009054906101000a900460ff1615610a6a576040517f08c379a00000000000000000000000000000000000000000000000000000000081526004018080602001828103825260188152602001807f54686520766f74657220616c726561647920766f7465642e000000000000000081525060200191505060405180910390fd5b6000600160008373ffffffffffffffffffffffffffffffffffffffff1673ffffffffffffffffffffffffffffffffffffffff1681526020019081526020016000206000015414610ab957600080fd5b60018060008373ffffffffffffffffffffffffffffffffffffffff1673ffffffffffffffffffffffffffffffffffffffff1681526020019081526020016000206000018190555050565b60016020528060005260406000206000915090508060000154908060010160009054906101000a900460ff16908060010160019054906101000a900473ffffffffffffffffffffffffffffffffffffffff16908060020154905084565b60006002610b6c61088f565b81548110610b7657fe5b90600052602060002090600202016000015490509056fe4f6e6c79206368616972706572736f6e2063616e206769766520726967687420746f20766f74652ea2646970667358221220be919fa9c46256afebce2226106650d0c001664daa6f13d7ce5ab0ffb0fea0c864736f6c634300060c0033",
					"opcodes": "PUSH1 0x80 PUSH1 0x40 MSTORE CALLVALUE DUP1 ISZERO PUSH2 0x10 JUMPI PUSH1 0x0 DUP1 REVERT JUMPDEST POP PUSH1 0x40 MLOAD PUSH2 0xDF1 CODESIZE SUB DUP1 PUSH2 0xDF1 DUP4 CODECOPY DUP2 DUP2 ADD PUSH1 0x40 MSTORE PUSH1 0x20 DUP2 LT ISZERO PUSH2 0x33 JUMPI PUSH1 0x0 DUP1 REVERT JUMPDEST DUP2 ADD SWAP1 DUP1 DUP1 MLOAD PUSH1 0x40 MLOAD SWAP4 SWAP3 SWAP2 SWAP1 DUP5 PUSH5 0x100000000 DUP3 GT ISZERO PUSH2 0x53 JUMPI PUSH1 0x0 DUP1 REVERT JUMPDEST DUP4 DUP3 ADD SWAP2 POP PUSH1 0x20 DUP3 ADD DUP6 DUP2 GT ISZERO PUSH2 0x69 JUMPI PUSH1 0x0 DUP1 REVERT JUMPDEST DUP3 MLOAD DUP7 PUSH1 0x20 DUP3 MUL DUP4 ADD GT PUSH5 0x100000000 DUP3 GT OR ISZERO PUSH2 0x86 JUMPI PUSH1 0x0 DUP1 REVERT JUMPDEST DUP1 DUP4 MSTORE PUSH1 0x20 DUP4 ADD SWAP3 POP POP POP SWAP1 DUP1 MLOAD SWAP1 PUSH1 0x20 ADD SWAP1 PUSH1 0x20 MUL DUP1 DUP4 DUP4 PUSH1 0x0 JUMPDEST DUP4 DUP2 LT ISZERO PUSH2 0xBD JUMPI DUP1 DUP3 ADD MLOAD DUP2 DUP5 ADD MSTORE PUSH1 0x20 DUP2 ADD SWAP1 POP PUSH2 0xA2 JUMP JUMPDEST POP POP POP POP SWAP1 POP ADD PUSH1 0x40 MSTORE POP POP POP CALLER PUSH1 0x0 DUP1 PUSH2 0x100 EXP DUP2 SLOAD DUP2 PUSH20 0xFFFFFFFFFFFFFFFFFFFFFFFFFFFFFFFFFFFFFFFF MUL NOT AND SWAP1 DUP4 PUSH20 0xFFFFFFFFFFFFFFFFFFFFFFFFFFFFFFFFFFFFFFFF AND MUL OR SWAP1 SSTORE POP PUSH1 0x1 DUP1 PUSH1 0x0 DUP1 PUSH1 0x0 SWAP1 SLOAD SWAP1 PUSH2 0x100 EXP SWAP1 DIV PUSH20 0xFFFFFFFFFFFFFFFFFFFFFFFFFFFFFFFFFFFFFFFF AND PUSH20 0xFFFFFFFFFFFFFFFFFFFFFFFFFFFFFFFFFFFFFFFF AND PUSH20 0xFFFFFFFFFFFFFFFFFFFFFFFFFFFFFFFFFFFFFFFF AND DUP2 MSTORE PUSH1 0x20 ADD SWAP1 DUP2 MSTORE PUSH1 0x20 ADD PUSH1 0x0 KECCAK256 PUSH1 0x0 ADD DUP2 SWAP1 SSTORE POP PUSH1 0x0 JUMPDEST DUP2 MLOAD DUP2 LT ISZERO PUSH2 0x1F5 JUMPI PUSH1 0x2 PUSH1 0x40 MLOAD DUP1 PUSH1 0x40 ADD PUSH1 0x40 MSTORE DUP1 DUP5 DUP5 DUP2 MLOAD DUP2 LT PUSH2 0x197 JUMPI INVALID JUMPDEST PUSH1 0x20 MUL PUSH1 0x20 ADD ADD MLOAD DUP2 MSTORE PUSH1 0x20 ADD PUSH1 0x0 DUP2 MSTORE POP SWAP1 DUP1 PUSH1 0x1 DUP2 SLOAD ADD DUP1 DUP3 SSTORE DUP1 SWAP2 POP POP PUSH1 0x1 SWAP1 SUB SWAP1 PUSH1 0x0 MSTORE PUSH1 0x20 PUSH1 0x0 KECCAK256 SWAP1 PUSH1 0x2 MUL ADD PUSH1 0x0 SWAP1 SWAP2 SWAP1 SWAP2 SWAP1 SWAP2 POP PUSH1 0x0 DUP3 ADD MLOAD DUP2 PUSH1 0x0 ADD SSTORE PUSH1 0x20 DUP3 ADD MLOAD DUP2 PUSH1 0x1 ADD SSTORE POP POP DUP1 DUP1 PUSH1 0x1 ADD SWAP2 POP POP PUSH2 0x175 JUMP JUMPDEST POP POP PUSH2 0xBEB DUP1 PUSH2 0x206 PUSH1 0x0 CODECOPY PUSH1 0x0 RETURN INVALID PUSH1 0x80 PUSH1 0x40 MSTORE CALLVALUE DUP1 ISZERO PUSH2 0x10 JUMPI PUSH1 0x0 DUP1 REVERT JUMPDEST POP PUSH1 0x4 CALLDATASIZE LT PUSH2 0x88 JUMPI PUSH1 0x0 CALLDATALOAD PUSH1 0xE0 SHR DUP1 PUSH4 0x8E7EA5B2 GT PUSH2 0x5B JUMPI DUP1 PUSH4 0x8E7EA5B2 EQ PUSH2 0x17C JUMPI DUP1 PUSH4 0x9E7B8D61 EQ PUSH2 0x19A JUMPI DUP1 PUSH4 0xA3EC138D EQ PUSH2 0x1DE JUMPI DUP1 PUSH4 0xE2BA53F0 EQ PUSH2 0x263 JUMPI PUSH2 0x88 JUMP JUMPDEST DUP1 PUSH4 0x121B93F EQ PUSH2 0x8D JUMPI DUP1 PUSH4 0x13CF08B EQ PUSH2 0xBB JUMPI DUP1 PUSH4 0x2E4176CF EQ PUSH2 0x104 JUMPI DUP1 PUSH4 0x5C19A95C EQ PUSH2 0x138 JUMPI JUMPDEST PUSH1 0x0 DUP1 REVERT JUMPDEST PUSH2 0xB9 PUSH1 0x4 DUP1 CALLDATASIZE SUB PUSH1 0x20 DUP2 LT ISZERO PUSH2 0xA3 JUMPI PUSH1 0x0 DUP1 REVERT JUMPDEST DUP2 ADD SWAP1 DUP1 DUP1 CALLDATALOAD SWAP1 PUSH1 0x20 ADD SWAP1 SWAP3 SWAP2 SWAP1 POP POP POP PUSH2 0x281 JUMP JUMPDEST STOP JUMPDEST PUSH2 0xE7 PUSH1 0x4 DUP1 CALLDATASIZE SUB PUSH1 0x20 DUP2 LT ISZERO PUSH2 0xD1 JUMPI PUSH1 0x0 DUP1 REVERT JUMPDEST DUP2 ADD SWAP1 DUP1 DUP1 CALLDATALOAD SWAP1 PUSH1 0x20 ADD SWAP1 SWAP3 SWAP2 SWAP1 POP POP POP PUSH2 0x41E JUMP JUMPDEST PUSH1 0x40 MLOAD DUP1 DUP4 DUP2 MSTORE PUSH1 0x20 ADD DUP3 DUP2 MSTORE PUSH1 0x20 ADD SWAP3 POP POP POP PUSH1 0x40 MLOAD DUP1 SWAP2 SUB SWAP1 RETURN JUMPDEST PUSH2 0x10C PUSH2 0x44F JUMP JUMPDEST PUSH1 0x40 MLOAD DUP1 DUP3 PUSH20 0xFFFFFFFFFFFFFFFFFFFFFFFFFFFFFFFFFFFFFFFF AND DUP2 MSTORE PUSH1 0x20 ADD SWAP2 POP POP PUSH1 0x40 MLOAD DUP1 SWAP2 SUB SWAP1 RETURN JUMPDEST PUSH2 0x17A PUSH1 0x4 DUP1 CALLDATASIZE SUB PUSH1 0x20 DUP2 LT ISZERO PUSH2 0x14E JUMPI PUSH1 0x0 DUP1 REVERT JUMPDEST DUP2 ADD SWAP1 DUP1 DUP1 CALLDATALOAD PUSH20 0xFFFFFFFFFFFFFFFFFFFFFFFFFFFFFFFFFFFFFFFF AND SWAP1 PUSH1 0x20 ADD SWAP1 SWAP3 SWAP2 SWAP1 POP POP POP PUSH2 0x473 JUMP JUMPDEST STOP JUMPDEST PUSH2 0x184 PUSH2 0x88F JUMP JUMPDEST PUSH1 0x40 MLOAD DUP1 DUP3 DUP2 MSTORE PUSH1 0x20 ADD SWAP2 POP POP PUSH1 0x40 MLOAD DUP1 SWAP2 SUB SWAP1 RETURN JUMPDEST PUSH2 0x1DC PUSH1 0x4 DUP1 CALLDATASIZE SUB PUSH1 0x20 DUP2 LT ISZERO PUSH2 0x1B0 JUMPI PUSH1 0x0 DUP1 REVERT JUMPDEST DUP2 ADD SWAP1 DUP1 DUP1 CALLDATALOAD PUSH20 0xFFFFFFFFFFFFFFFFFFFFFFFFFFFFFFFFFFFFFFFF AND SWAP1 PUSH1 0x20 ADD SWAP1 SWAP3 SWAP2 SWAP1 POP POP POP PUSH2 0x903 JUMP JUMPDEST STOP JUMPDEST PUSH2 0x220 PUSH1 0x4 DUP1 CALLDATASIZE SUB PUSH1 0x20 DUP2 LT ISZERO PUSH2 0x1F4 JUMPI PUSH1 0x0 DUP1 REVERT JUMPDEST DUP2 ADD SWAP1 DUP1 DUP1 CALLDATALOAD PUSH20 0xFFFFFFFFFFFFFFFFFFFFFFFFFFFFFFFFFFFFFFFF AND SWAP1 PUSH1 0x20 ADD SWAP1 SWAP3 SWAP2 SWAP1 POP POP POP PUSH2 0xB03 JUMP JUMPDEST PUSH1 0x40 MLOAD DUP1 DUP6 DUP2 MSTORE PUSH1 0x20 ADD DUP5 ISZERO ISZERO DUP2 MSTORE PUSH1 0x20 ADD DUP4 PUSH20 0xFFFFFFFFFFFFFFFFFFFFFFFFFFFFFFFFFFFFFFFF AND DUP2 MSTORE PUSH1 0x20 ADD DUP3 DUP2 MSTORE PUSH1 0x20 ADD SWAP5 POP POP POP POP POP PUSH1 0x40 MLOAD DUP1 SWAP2 SUB SWAP1 RETURN JUMPDEST PUSH2 0x26B PUSH2 0xB60 JUMP JUMPDEST PUSH1 0x40 MLOAD DUP1 DUP3 DUP2 MSTORE PUSH1 0x20 ADD SWAP2 POP POP PUSH1 0x40 MLOAD DUP1 SWAP2 SUB SWAP1 RETURN JUMPDEST PUSH1 0x0 PUSH1 0x1 PUSH1 0x0 CALLER PUSH20 0xFFFFFFFFFFFFFFFFFFFFFFFFFFFFFFFFFFFFFFFF AND PUSH20 0xFFFFFFFFFFFFFFFFFFFFFFFFFFFFFFFFFFFFFFFF AND DUP2 MSTORE PUSH1 0x20 ADD SWAP1 DUP2 MSTORE PUSH1 0x20 ADD PUSH1 0x0 KECCAK256 SWAP1 POP PUSH1 0x0 DUP2 PUSH1 0x0 ADD SLOAD EQ ISZERO PUSH2 0x33F JUMPI PUSH1 0x40 MLOAD PUSH32 0x8C379A000000000000000000000000000000000000000000000000000000000 DUP2 MSTORE PUSH1 0x4 ADD DUP1 DUP1 PUSH1 0x20 ADD DUP3 DUP2 SUB DUP3 MSTORE PUSH1 0x14 DUP2 MSTORE PUSH1 0x20 ADD DUP1 PUSH32 0x486173206E6F20726967687420746F20766F7465000000000000000000000000 DUP2 MSTORE POP PUSH1 0x20 ADD SWAP2 POP POP PUSH1 0x40 MLOAD DUP1 SWAP2 SUB SWAP1 REVERT JUMPDEST DUP1 PUSH1 0x1 ADD PUSH1 0x0 SWAP1 SLOAD SWAP1 PUSH2 0x100 EXP SWAP1 DIV PUSH1 0xFF AND ISZERO PUSH2 0x3C4 JUMPI PUSH1 0x40 MLOAD PUSH32 0x8C379A000000000000000000000000000000000000000000000000000000000 DUP2 MSTORE PUSH1 0x4 ADD DUP1 DUP1 PUSH1 0x20 ADD DUP3 DUP2 SUB DUP3 MSTORE PUSH1 0xE DUP2 MSTORE PUSH1 0x20 ADD DUP1 PUSH32 0x416C726561647920766F7465642E000000000000000000000000000000000000 DUP2 MSTORE POP PUSH1 0x20 ADD SWAP2 POP POP PUSH1 0x40 MLOAD DUP1 SWAP2 SUB SWAP1 REVERT JUMPDEST PUSH1 0x1 DUP2 PUSH1 0x1 ADD PUSH1 0x0 PUSH2 0x100 EXP DUP2 SLOAD DUP2 PUSH1 0xFF MUL NOT AND SWAP1 DUP4 ISZERO ISZERO MUL OR SWAP1 SSTORE POP DUP2 DUP2 PUSH1 0x2 ADD DUP2 SWAP1 SSTORE POP DUP1 PUSH1 0x0 ADD SLOAD PUSH1 0x2 DUP4 DUP2 SLOAD DUP2 LT PUSH2 0x3FC JUMPI INVALID JUMPDEST SWAP1 PUSH1 0x0 MSTORE PUSH1 0x20 PUSH1 0x0 KECCAK256 SWAP1 PUSH1 0x2 MUL ADD PUSH1 0x1 ADD PUSH1 0x0 DUP3 DUP3 SLOAD ADD SWAP3 POP POP DUP2 SWAP1 SSTORE POP POP POP JUMP JUMPDEST PUSH1 0x2 DUP2 DUP2 SLOAD DUP2 LT PUSH2 0x42B JUMPI INVALID JUMPDEST SWAP1 PUSH1 0x0 MSTORE PUSH1 0x20 PUSH1 0x0 KECCAK256 SWAP1 PUSH1 0x2 MUL ADD PUSH1 0x0 SWAP2 POP SWAP1 POP DUP1 PUSH1 0x0 ADD SLOAD SWAP1 DUP1 PUSH1 0x1 ADD SLOAD SWAP1 POP DUP3 JUMP JUMPDEST PUSH1 0x0 DUP1 SLOAD SWAP1 PUSH2 0x100 EXP SWAP1 DIV PUSH20 0xFFFFFFFFFFFFFFFFFFFFFFFFFFFFFFFFFFFFFFFF AND DUP2 JUMP JUMPDEST PUSH1 0x0 PUSH1 0x1 PUSH1 0x0 CALLER PUSH20 0xFFFFFFFFFFFFFFFFFFFFFFFFFFFFFFFFFFFFFFFF AND PUSH20 0xFFFFFFFFFFFFFFFFFFFFFFFFFFFFFFFFFFFFFFFF AND DUP2 MSTORE PUSH1 0x20 ADD SWAP1 DUP2 MSTORE PUSH1 0x20 ADD PUSH1 0x0 KECCAK256 SWAP1 POP DUP1 PUSH1 0x1 ADD PUSH1 0x0 SWAP1 SLOAD SWAP1 PUSH2 0x100 EXP SWAP1 DIV PUSH1 0xFF AND ISZERO PUSH2 0x53B JUMPI PUSH1 0x40 MLOAD PUSH32 0x8C379A000000000000000000000000000000000000000000000000000000000 DUP2 MSTORE PUSH1 0x4 ADD DUP1 DUP1 PUSH1 0x20 ADD DUP3 DUP2 SUB DUP3 MSTORE PUSH1 0x12 DUP2 MSTORE PUSH1 0x20 ADD DUP1 PUSH32 0x596F7520616C726561647920766F7465642E0000000000000000000000000000 DUP2 MSTORE POP PUSH1 0x20 ADD SWAP2 POP POP PUSH1 0x40 MLOAD DUP1 SWAP2 SUB SWAP1 REVERT JUMPDEST CALLER PUSH20 0xFFFFFFFFFFFFFFFFFFFFFFFFFFFFFFFFFFFFFFFF AND DUP3 PUSH20 0xFFFFFFFFFFFFFFFFFFFFFFFFFFFFFFFFFFFFFFFF AND EQ ISZERO PUSH2 0x5DD JUMPI PUSH1 0x40 MLOAD PUSH32 0x8C379A000000000000000000000000000000000000000000000000000000000 DUP2 MSTORE PUSH1 0x4 ADD DUP1 DUP1 PUSH1 0x20 ADD DUP3 DUP2 SUB DUP3 MSTORE PUSH1 0x13 DUP2 MSTORE PUSH1 0x20 ADD DUP1 PUSH32 0x4E6F2053656C662D64656C65676174696F6E2100000000000000000000000000 DUP2 MSTORE POP PUSH1 0x20 ADD SWAP2 POP POP PUSH1 0x40 MLOAD DUP1 SWAP2 SUB SWAP1 REVERT JUMPDEST JUMPDEST PUSH1 0x0 PUSH20 0xFFFFFFFFFFFFFFFFFFFFFFFFFFFFFFFFFFFFFFFF AND PUSH1 0x1 PUSH1 0x0 DUP5 PUSH20 0xFFFFFFFFFFFFFFFFFFFFFFFFFFFFFFFFFFFFFFFF AND PUSH20 0xFFFFFFFFFFFFFFFFFFFFFFFFFFFFFFFFFFFFFFFF AND DUP2 MSTORE PUSH1 0x20 ADD SWAP1 DUP2 MSTORE PUSH1 0x20 ADD PUSH1 0x0 KECCAK256 PUSH1 0x1 ADD PUSH1 0x1 SWAP1 SLOAD SWAP1 PUSH2 0x100 EXP SWAP1 DIV PUSH20 0xFFFFFFFFFFFFFFFFFFFFFFFFFFFFFFFFFFFFFFFF AND PUSH20 0xFFFFFFFFFFFFFFFFFFFFFFFFFFFFFFFFFFFFFFFF AND EQ PUSH2 0x780 JUMPI PUSH1 0x1 PUSH1 0x0 DUP4 PUSH20 0xFFFFFFFFFFFFFFFFFFFFFFFFFFFFFFFFFFFFFFFF AND PUSH20 0xFFFFFFFFFFFFFFFFFFFFFFFFFFFFFFFFFFFFFFFF AND DUP2 MSTORE PUSH1 0x20 ADD SWAP1 DUP2 MSTORE PUSH1 0x20 ADD PUSH1 0x0 KECCAK256 PUSH1 0x1 ADD PUSH1 0x1 SWAP1 SLOAD SWAP1 PUSH2 0x100 EXP SWAP1 DIV PUSH20 0xFFFFFFFFFFFFFFFFFFFFFFFFFFFFFFFFFFFFFFFF AND SWAP2 POP CALLER PUSH20 0xFFFFFFFFFFFFFFFFFFFFFFFFFFFFFFFFFFFFFFFF AND DUP3 PUSH20 0xFFFFFFFFFFFFFFFFFFFFFFFFFFFFFFFFFFFFFFFF AND EQ ISZERO PUSH2 0x77B JUMPI PUSH1 0x40 MLOAD PUSH32 0x8C379A000000000000000000000000000000000000000000000000000000000 DUP2 MSTORE PUSH1 0x4 ADD DUP1 DUP1 PUSH1 0x20 ADD DUP3 DUP2 SUB DUP3 MSTORE PUSH1 0x10 DUP2 MSTORE PUSH1 0x20 ADD DUP1 PUSH32 0x44656C65676174696F6E204C6F6F702100000000000000000000000000000000 DUP2 MSTORE POP PUSH1 0x20 ADD SWAP2 POP POP PUSH1 0x40 MLOAD DUP1 SWAP2 SUB SWAP1 REVERT JUMPDEST PUSH2 0x5DE JUMP JUMPDEST PUSH1 0x1 DUP2 PUSH1 0x1 ADD PUSH1 0x0 PUSH2 0x100 EXP DUP2 SLOAD DUP2 PUSH1 0xFF MUL NOT AND SWAP1 DUP4 ISZERO ISZERO MUL OR SWAP1 SSTORE POP DUP2 DUP2 PUSH1 0x1 ADD PUSH1 0x1 PUSH2 0x100 EXP DUP2 SLOAD DUP2 PUSH20 0xFFFFFFFFFFFFFFFFFFFFFFFFFFFFFFFFFFFFFFFF MUL NOT AND SWAP1 DUP4 PUSH20 0xFFFFFFFFFFFFFFFFFFFFFFFFFFFFFFFFFFFFFFFF AND MUL OR SWAP1 SSTORE POP PUSH1 0x0 PUSH1 0x1 PUSH1 0x0 DUP5 PUSH20 0xFFFFFFFFFFFFFFFFFFFFFFFFFFFFFFFFFFFFFFFF AND PUSH20 0xFFFFFFFFFFFFFFFFFFFFFFFFFFFFFFFFFFFFFFFF AND DUP2 MSTORE PUSH1 0x20 ADD SWAP1 DUP2 MSTORE PUSH1 0x20 ADD PUSH1 0x0 KECCAK256 SWAP1 POP DUP1 PUSH1 0x1 ADD PUSH1 0x0 SWAP1 SLOAD SWAP1 PUSH2 0x100 EXP SWAP1 DIV PUSH1 0xFF AND ISZERO PUSH2 0x873 JUMPI DUP2 PUSH1 0x0 ADD SLOAD PUSH1 0x2 DUP3 PUSH1 0x2 ADD SLOAD DUP2 SLOAD DUP2 LT PUSH2 0x850 JUMPI INVALID JUMPDEST SWAP1 PUSH1 0x0 MSTORE PUSH1 0x20 PUSH1 0x0 KECCAK256 SWAP1 PUSH1 0x2 MUL ADD PUSH1 0x1 ADD PUSH1 0x0 DUP3 DUP3 SLOAD ADD SWAP3 POP POP DUP2 SWAP1 SSTORE POP PUSH2 0x88A JUMP JUMPDEST DUP2 PUSH1 0x0 ADD SLOAD DUP2 PUSH1 0x0 ADD PUSH1 0x0 DUP3 DUP3 SLOAD ADD SWAP3 POP POP DUP2 SWAP1 SSTORE POP JUMPDEST POP POP POP JUMP JUMPDEST PUSH1 0x0 DUP1 PUSH1 0x0 SWAP1 POP PUSH1 0x0 JUMPDEST PUSH1 0x2 DUP1 SLOAD SWAP1 POP DUP2 LT ISZERO PUSH2 0x8FE JUMPI DUP2 PUSH1 0x2 DUP3 DUP2 SLOAD DUP2 LT PUSH2 0x8B4 JUMPI INVALID JUMPDEST SWAP1 PUSH1 0x0 MSTORE PUSH1 0x20 PUSH1 0x0 KECCAK256 SWAP1 PUSH1 0x2 MUL ADD PUSH1 0x1 ADD SLOAD GT ISZERO PUSH2 0x8F1 JUMPI PUSH1 0x2 DUP2 DUP2 SLOAD DUP2 LT PUSH2 0x8D9 JUMPI INVALID JUMPDEST SWAP1 PUSH1 0x0 MSTORE PUSH1 0x20 PUSH1 0x0 KECCAK256 SWAP1 PUSH1 0x2 MUL ADD PUSH1 0x1 ADD SLOAD SWAP2 POP DUP1 SWAP3 POP JUMPDEST DUP1 DUP1 PUSH1 0x1 ADD SWAP2 POP POP PUSH2 0x899 JUMP JUMPDEST POP POP SWAP1 JUMP JUMPDEST PUSH1 0x0 DUP1 SLOAD SWAP1 PUSH2 0x100 EXP SWAP1 DIV PUSH20 0xFFFFFFFFFFFFFFFFFFFFFFFFFFFFFFFFFFFFFFFF AND PUSH20 0xFFFFFFFFFFFFFFFFFFFFFFFFFFFFFFFFFFFFFFFF AND CALLER PUSH20 0xFFFFFFFFFFFFFFFFFFFFFFFFFFFFFFFFFFFFFFFF AND EQ PUSH2 0x9A7 JUMPI PUSH1 0x40 MLOAD PUSH32 0x8C379A000000000000000000000000000000000000000000000000000000000 DUP2 MSTORE PUSH1 0x4 ADD DUP1 DUP1 PUSH1 0x20 ADD DUP3 DUP2 SUB DUP3 MSTORE PUSH1 0x28 DUP2 MSTORE PUSH1 0x20 ADD DUP1 PUSH2 0xB8E PUSH1 0x28 SWAP2 CODECOPY PUSH1 0x40 ADD SWAP2 POP POP PUSH1 0x40 MLOAD DUP1 SWAP2 SUB SWAP1 REVERT JUMPDEST PUSH1 0x1 PUSH1 0x0 DUP3 PUSH20 0xFFFFFFFFFFFFFFFFFFFFFFFFFFFFFFFFFFFFFFFF AND PUSH20 0xFFFFFFFFFFFFFFFFFFFFFFFFFFFFFFFFFFFFFFFF AND DUP2 MSTORE PUSH1 0x20 ADD SWAP1 DUP2 MSTORE PUSH1 0x20 ADD PUSH1 0x0 KECCAK256 PUSH1 0x1 ADD PUSH1 0x0 SWAP1 SLOAD SWAP1 PUSH2 0x100 EXP SWAP1 DIV PUSH1 0xFF AND ISZERO PUSH2 0xA6A JUMPI PUSH1 0x40 MLOAD PUSH32 0x8C379A000000000000000000000000000000000000000000000000000000000 DUP2 MSTORE PUSH1 0x4 ADD DUP1 DUP1 PUSH1 0x20 ADD DUP3 DUP2 SUB DUP3 MSTORE PUSH1 0x18 DUP2 MSTORE PUSH1 0x20 ADD DUP1 PUSH32 0x54686520766F74657220616C726561647920766F7465642E0000000000000000 DUP2 MSTORE POP PUSH1 0x20 ADD SWAP2 POP POP PUSH1 0x40 MLOAD DUP1 SWAP2 SUB SWAP1 REVERT JUMPDEST PUSH1 0x0 PUSH1 0x1 PUSH1 0x0 DUP4 PUSH20 0xFFFFFFFFFFFFFFFFFFFFFFFFFFFFFFFFFFFFFFFF AND PUSH20 0xFFFFFFFFFFFFFFFFFFFFFFFFFFFFFFFFFFFFFFFF AND DUP2 MSTORE PUSH1 0x20 ADD SWAP1 DUP2 MSTORE PUSH1 0x20 ADD PUSH1 0x0 KECCAK256 PUSH1 0x0 ADD SLOAD EQ PUSH2 0xAB9 JUMPI PUSH1 0x0 DUP1 REVERT JUMPDEST PUSH1 0x1 DUP1 PUSH1 0x0 DUP4 PUSH20 0xFFFFFFFFFFFFFFFFFFFFFFFFFFFFFFFFFFFFFFFF AND PUSH20 0xFFFFFFFFFFFFFFFFFFFFFFFFFFFFFFFFFFFFFFFF AND DUP2 MSTORE PUSH1 0x20 ADD SWAP1 DUP2 MSTORE PUSH1 0x20 ADD PUSH1 0x0 KECCAK256 PUSH1 0x0 ADD DUP2 SWAP1 SSTORE POP POP JUMP JUMPDEST PUSH1 0x1 PUSH1 0x20 MSTORE DUP1 PUSH1 0x0 MSTORE PUSH1 0x40 PUSH1 0x0 KECCAK256 PUSH1 0x0 SWAP2 POP SWAP1 POP DUP1 PUSH1 0x0 ADD SLOAD SWAP1 DUP1 PUSH1 0x1 ADD PUSH1 0x0 SWAP1 SLOAD SWAP1 PUSH2 0x100 EXP SWAP1 DIV PUSH1 0xFF AND SWAP1 DUP1 PUSH1 0x1 ADD PUSH1 0x1 SWAP1 SLOAD SWAP1 PUSH2 0x100 EXP SWAP1 DIV PUSH20 0xFFFFFFFFFFFFFFFFFFFFFFFFFFFFFFFFFFFFFFFF AND SWAP1 DUP1 PUSH1 0x2 ADD SLOAD SWAP1 POP DUP5 JUMP JUMPDEST PUSH1 0x0 PUSH1 0x2 PUSH2 0xB6C PUSH2 0x88F JUMP JUMPDEST DUP2 SLOAD DUP2 LT PUSH2 0xB76 JUMPI INVALID JUMPDEST SWAP1 PUSH1 0x0 MSTORE PUSH1 0x20 PUSH1 0x0 KECCAK256 SWAP1 PUSH1 0x2 MUL ADD PUSH1 0x0 ADD SLOAD SWAP1 POP SWAP1 JUMP INVALID 0x4F PUSH15 0x6C79206368616972706572736F6E20 PUSH4 0x616E2067 PUSH10 0x76652072696768742074 PUSH16 0x20766F74652EA2646970667358221220 0xBE SWAP2 SWAP16 0xA9 0xC4 PUSH3 0x56AFEB 0xCE 0x22 0x26 LT PUSH7 0x50D0C001664DAA PUSH16 0x13D7CE5AB0FFB0FEA0C864736F6C6343 STOP MOD 0xC STOP CALLER "
				},
				"gasEstimates": {
					"creation": {
						"codeDepositCost": "610200",
						"executionCost": "infinite",
						"totalCost": "infinite"
					},
					"external": {
						"chairperson()": "1089",
						"delegate(address)": "infinite",
						"getWinner()": "infinite",
						"giveRightToVote(address)": "infinite",
						"proposals(uint256)": "2860",
						"vote(uint256)": "65454",
						"voters(address)": "3857",
						"winnerName()": "infinite"
					}
				},
				"methodIdentifiers": {
					"chairperson()": "2e4176cf",
					"delegate(address)": "5c19a95c",
					"getWinner()": "8e7ea5b2",
					"giveRightToVote(address)": "9e7b8d61",
					"proposals(uint256)": "013cf08b",
					"vote(uint256)": "0121b93f",
					"voters(address)": "a3ec138d",
					"winnerName()": "e2ba53f0"
				}
			},
			"storageLayout": {
				"storage": [
					{
						"astId": 17,
						"contract": "7/voting.sol:Ballot",
						"label": "chairperson",
						"offset": 0,
						"slot": "0",
						"type": "t_address"
					},
					{
						"astId": 21,
						"contract": "7/voting.sol:Ballot",
						"label": "voters",
						"offset": 0,
						"slot": "1",
						"type": "t_mapping(t_address,t_struct(Voter)10_storage)"
					},
					{
						"astId": 24,
						"contract": "7/voting.sol:Ballot",
						"label": "proposals",
						"offset": 0,
						"slot": "2",
						"type": "t_array(t_struct(Proposal)15_storage)dyn_storage"
					}
				],
				"types": {
					"t_address": {
						"encoding": "inplace",
						"label": "address",
						"numberOfBytes": "20"
					},
					"t_array(t_struct(Proposal)15_storage)dyn_storage": {
						"base": "t_struct(Proposal)15_storage",
						"encoding": "dynamic_array",
						"label": "struct Ballot.Proposal[]",
						"numberOfBytes": "32"
					},
					"t_bool": {
						"encoding": "inplace",
						"label": "bool",
						"numberOfBytes": "1"
					},
					"t_bytes32": {
						"encoding": "inplace",
						"label": "bytes32",
						"numberOfBytes": "32"
					},
					"t_mapping(t_address,t_struct(Voter)10_storage)": {
						"encoding": "mapping",
						"key": "t_address",
						"label": "mapping(address => struct Ballot.Voter)",
						"numberOfBytes": "32",
						"value": "t_struct(Voter)10_storage"
					},
					"t_struct(Proposal)15_storage": {
						"encoding": "inplace",
						"label": "struct Ballot.Proposal",
						"members": [
							{
								"astId": 12,
								"contract": "7/voting.sol:Ballot",
								"label": "name",
								"offset": 0,
								"slot": "0",
								"type": "t_bytes32"
							},
							{
								"astId": 14,
								"contract": "7/voting.sol:Ballot",
								"label": "voteCount",
								"offset": 0,
								"slot": "1",
								"type": "t_uint256"
							}
						],
						"numberOfBytes": "64"
					},
					"t_struct(Voter)10_storage": {
						"encoding": "inplace",
						"label": "struct Ballot.Voter",
						"members": [
							{
								"astId": 3,
								"contract": "7/voting.sol:Ballot",
								"label": "weight",
								"offset": 0,
								"slot": "0",
								"type": "t_uint256"
							},
							{
								"astId": 5,
								"contract": "7/voting.sol:Ballot",
								"label": "voted",
								"offset": 0,
								"slot": "1",
								"type": "t_bool"
							},
							{
								"astId": 7,
								"contract": "7/voting.sol:Ballot",
								"label": "delegate",
								"offset": 1,
								"slot": "1",
								"type": "t_address"
							},
							{
								"astId": 9,
								"contract": "7/voting.sol:Ballot",
								"label": "vote",
								"offset": 0,
								"slot": "2",
								"type": "t_uint256"
							}
						],
						"numberOfBytes": "96"
					},
					"t_uint256": {
						"encoding": "inplace",
						"label": "uint256",
						"numberOfBytes": "32"
					}
				}
			},
			"userdoc": {
				"kind": "user",
				"methods": {},
				"version": 1
			}
		}
	}
}